:020000040800F2
:10000000680600204D02000855020008570200084B
:10001000590200085B0200085D02000800000000B1
:100020000000000000000000000000005F02000867
:100030006102000800000000630200086502000879
:1000400067020008670200086702000867020008EC
:1000500067020008670200086702000867020008DC
:1000600067020008670200086702000867020008CC
:1000700067020008670200086702000867020008BC
:1000800067020008670200086702000867020008AC
:10009000670200086702000867020008670200089C
:1000A000670200086702000867020008670200088C
:1000B000670200086702000867020008670200087C
:1000C000670200086702000867020008670200086C
:1000D000670200086702000867020008670200085C
:1000E000670200086702000867020008670200084C
:1000F000670200086702000867020008670200083C
:10010000670200086702000867020008670200082B
:10011000670200086702000867020008670200081B
:10012000670200086702000867020008670200080B
:1001300067020008670200086702000867020008FB
:1001400067020008670200086702000867020008EB
:1001500067020008670200086702000867020008DB
:1001600067020008670200086702000867020008CB
:10017000670200086702000867020008000000002C
:1001800067020008670200086702000867020008AB
:10019000670200086702000867020008670200089B
:1001A00000000000000000006702000800F002F8F4
:1001B00000F03CF80AA090E8000C82448344AAF1C5
:1001C0000107DA4501D100F031F8AFF2090EBAE8C3
:1001D0000F0013F0010F18BFFB1A43F0010318477B
:1001E0000404000024040000103A24BF78C878C139
:1001F000FAD8520724BF30C830C144BF04680C602D
:10020000704700000023002400250026103A28BF74
:1002100078C1FBD8520728BF30C148BF0B60704778
:100220001FB500F0D8F91FBD10B510BD00F031F8B2
:100230001146FFF7F5FF00F0C9F900F04FF803B4DD
:10024000FFF7F2FF03BC00F053F8000009488047B5
:1002500009480047FEE7FEE7FEE7FEE7FEE7FEE7A8
:10026000FEE7FEE7FEE7FEE704480549054A064BC0
:100270007047000069050008AD0100086800002013
:10028000680600206802002068020020704770475E
:100290007047754600F028F8AE460500694653469B
:1002A00020F00700854618B020B5FFF7DDFFBDE858
:1002B00020404FF000064FF000074FF000084FF0CD
:1002C000000B21F00701AC46ACE8C009ACE8C0095E
:1002D000ACE8C009ACE8C0098D4670470446AFF3EE
:1002E00000802046FFF7ABFF004870470400002065
:1002F00001491820ABBEFEE726000200704700004F
:10030000F0B502460B460025002400200021DCE069
:10031000012606FA01F51E6806EA0504AC426ED114
:100320005E68022E02D05E68122E13D1CF0802F151
:10033000200656F827004E07F70E0F26BE40B043A2
:100340004F07FF0E1E69BE403043CF0802F1200662
:1003500046F8270010684F000326BE40B0431E79C0
:1003600006F003064F00BE40304310605E68012E69
:1003700008D05E68022E05D05E68112E02D05E683D
:10038000122E13D190684F000326BE40B0434F0099
:10039000DE68BE4030439060506801268E40B04316
:1003A0001E79C6F300168E4030435060D0684F006F
:1003B0000326BE40B0434F009E68BE403043D0602D
:1003C0005E6806F08056B6F1805F7DD1414E36689A
:1003D00046F480463F4F3E603F4E8F0856F8270058
:1003E0008E07370F0F26BE40B0433C4EB24201D1BC
:1003F00000262EE03A4EB24202D1012629E063E007
:10040000384EB24201D1022623E0374EB24201D12A
:1004100003261EE0354EB24201D1042619E0344EC7
:10042000B24201D1052614E0324EB24201D1062675
:100430000FE0314EB24201D107260AE02F4EB24200
:1004400001D1082605E02E4EB24201D1092600E076
:100450000A268F073F0FBE4030431F4E8F0846F8D5
:100460002700284E3068A0435E6806F48036B6F553
:10047000803F00D12043234E3060361D3068A043BA
:100480005E6806F40036B6F5003F00D120431D4EED
:10049000361D3060361D3068A0435E6806F4801655
:1004A000B6F5801F00D12043164E08363060361D49
:1004B0003068A0435E6806F40016B6F5001F00D150
:1004C0002043104E0C363060491C1029FFF420AF39
:1004D000F0BD0000443802400838014000000240EE
:1004E0000004024000080240000C024000100240DC
:1004F0000014024000180240001C0240002002408C
:1005000000240240003C01400AB1018300E0418325
:100510007047000010B586B004461048006840F0EF
:1005200010000E4908600E4830F8140001900120B8
:1005300002900390022004900A4951F8240001A976
:10054000FFF7DEFE064A32F81410064A52F824007D
:100550000022FFF7D9FF06B010BD0000303802407E
:10056000E0050008000000201448006840F4700016
:10057000124908601248006840F001001049086004
:1005800000200F49083108600D4800680D490840F7
:100590000B4908600C48091D0860081F006820F41A
:1005A0008020091F0860002005490C3108604FF0C9
:1005B00000600249803908607047000088ED00E063
:1005C00000380240FFFFF6FE103000240020FFF745
:1005D000A1FF00BFFEE74FF04070E1EE100A704748
:1005E00000100000040600080000002004000000C5
:1005F000E801000808060008040000206406000066
:08060000040200080010024092
:04000005080001AD41
:00000001FF
