:020000040800F2
:1000000060040020C1010008C9010008CB010008FC
:10001000CD010008CF010008D10100080000000058
:10002000000000000000000000000000D3010008F4
:10003000D501000800000000D7010008590F000892
:10004000DB010008DB010008DB010008DB01000820
:10005000DB010008DB010008DB010008DB01000810
:10006000DB010008DB010008DB010008DB01000800
:10007000DB010008DB010008DB010008DB010008F0
:10008000DB010008DB010008DB010008DB010008E0
:10009000DB010008DB010008DB010008DB010008D0
:1000A000DB010008DB010008DB010008DB010008C0
:1000B000DB010008DB010008DB010008DB010008B0
:1000C000DB010008DB010008DB010008DB010008A0
:1000D000DB010008DB010008DB010008DB01000890
:1000E000DB010008DB010008DB010008DB01000880
:1000F000DB010008DB010008DB010008DB01000870
:10010000DB010008DB010008DB010008DB0100085F
:10011000DB010008DB010008DB010008DB0100084F
:10012000DB010008DB010008DB010008DB0100083F
:10013000DB010008DB010008DB010008DB0100082F
:10014000DB010008DB010008DB010008DB0100081F
:10015000DB010008DB010008DB010008DB0100080F
:10016000DB010008DB010008DB010008DB010008FF
:10017000DB010008DB010008DB01000800000000D3
:10018000DB010008DB01000835100008DB01000876
:10019000DB010008DB010008DB010008DB010008CF
:1001A0000000000000000000DB010008DFF80CD0B8
:1001B00000F018F8004800477D1400086004002093
:1001C0000648804706480047FEE7FEE7FEE7FEE7F1
:1001D000FEE7FEE7FEE7FEE7FEE7FEE7D10F0008D9
:1001E000AD010008064C074D06E0E06840F0010351
:1001F00094E8070098471034AC42F6D3FFF7DAFFD3
:10020000C8140008E814000806E0002000F078FE9A
:100210004FF4FA7000F001F8F7E731B5002400F070
:1002200017F9044600BF00F013F9001B009988423B
:10023000F9D338BDF0B502460B4600250024002056
:100240000021DCE0012606FA01F51E6806EA050435
:10025000AC426ED15E68022E02D05E68122E13D1BF
:10026000CF0802F1200656F827004E07F70E0F269A
:10027000BE40B0434F07FF0E1E69BE403043CF085B
:1002800002F1200646F8270010684F000326BE4002
:10029000B0431E7906F003064F00BE4030431060A5
:1002A0005E68012E08D05E68022E05D05E68112EB1
:1002B00002D05E68122E13D190684F000326BE4014
:1002C000B0434F00DE68BE40304390605068012666
:1002D0008E40B0431E79C6F300168E403043506006
:1002E000D0684F000326BE40B0434F009E68BE401A
:1002F0003043D0605E6806F08056B6F1805F7DD1F5
:10030000414E366846F480463F4F3E603F4E8F0870
:1003100056F827008E07370F0F26BE40B0433C4EDD
:10032000B24201D100262EE03A4EB24202D101265D
:1003300029E063E0384EB24201D1022623E0374E75
:10034000B24201D103261EE0354EB24201D104264D
:1003500019E0344EB24201D1052614E0324EB242C9
:1003600001D106260FE0314EB24201D107260AE044
:100370002F4EB24201D1082605E02E4EB24201D1E5
:10038000092600E00A268F073F0FBE4030431F4E6C
:100390008F0846F82700284E3068A0435E6806F4B0
:1003A0008036B6F5803F00D12043234E3060361DA5
:1003B0003068A0435E6806F40036B6F5003F00D111
:1003C00020431D4E361D3060361D3068A0435E68E8
:1003D00006F48016B6F5801F00D12043164E08366D
:1003E0003060361D3068A0435E6806F40016B6F52E
:1003F000001F00D12043104E0C363060491C1029DC
:10040000FFF420AFF0BD000044380240083801403E
:10041000000002400004024000080240000C0240BC
:10042000001002400014024000180240001C02406C
:100430000020024000240240003C014042694A4042
:10044000426170470AB1018300E0418370470000B8
:10045000014800687047000004000020024800685E
:10046000401C0149086070470400002010B50D4889
:10047000006840F400700B4908600846006840F4CA
:10048000806008600846006840F4807008600320BF
:1004900000F05CF80F2000F007F800F017F80020DB
:1004A00010BD0000003C024070B5044600F08CF91D
:1004B0004FF47A71B0FBF1F5284600F02DFC0022D4
:1004C0002146501E00F003F8002070BD70472DE952
:1004D000F05F80460D461646002700F021FD0746D6
:1004E00039462A46334601F00700C0F1070ABAF13F
:1004F000040F02D94FF0040A01E0C0F1070AD14607
:1005000000F1040ABAF1070F02D24FF0000A01E02D
:10051000A0F1030AD4464FF0010A0AFA09FAAAF137
:10052000010A0AEA020A0AFA0CFA4FF0010B0BFA66
:100530000CFBABF1010B0BEA030B4AEA0B0421465F
:10054000404600F0F5FCBDE8F09F000000BF00F061
:100550000702064B19684FF6FF031940044B0B4383
:1005600043EA0221014B196000BF70470CED00E027
:100570000000FA0570B504460D4600269048006854
:1005800000F00F00A8427ED28D490D700846006829
:1005900000F00F00A84201D0012070BD207800F0CB
:1005A0000200022807D18748006820F0F000A16807
:1005B000084384490860207800F0010000283BD0FF
:1005C0006068012807D17F4808380068C0F34040C0
:1005D000A0B90120E1E76068022807D1794808380E
:1005E0000068C0F3406048B90120D6E77548083874
:1005F0000068C0F3400008B90120CEE771480068E8
:1006000020F00300616808436E490860FFF720FF8F
:1006100006466068012810D108E0FFF719FF801B2B
:1006200041F28831884201D90320B6E76548006865
:1006300000F00C000428F0D1A2E06068022810D17C
:1006400008E0FFF705FF801B41F28831884201D99D
:100650000320A2E75B48006800F00C000828F0D1F6
:100660008EE009E0FFF7F4FE801B41F288318842FA
:1006700002D9032091E706E05248006800F00C0020
:100680000028EFD17CE0207800F00200022807D19A
:100690004C48006820F0F000A16808434949086010
:1006A000207800F00100002860D06068012807D1A0
:1006B000444808380068C0F34040A0B901206CE706
:1006C0006068022807D13F4808380068C0F34060DE
:1006D00048B9012061E73B4808380068C0F3400092
:1006E00008B9012059E73748006820F00300616825
:1006F000084334490860FFF7ABFE064660680128EE
:1007000010D108E0FFF7A4FE801B41F28831884237
:1007100001D9032041E72B48006800F00C000428B1
:10072000F0D123E06068022810D108E0FFF790FEC6
:10073000801B41F28831884201D903202DE72148EE
:10074000006800F00C000828F0D10FE008E0FFF787
:100750007FFE801B41F28831884201D903201CE7CB
:100760001848006800F00C000028F0D114490D7002
:100770000846006800F00F00A84201D001200CE7F5
:10078000207800F00400042807D10E48006820F407
:10079000E050E16808430B490860207800F0080049
:1007A000082808D10748006820F46040216940EA21
:1007B000C100044908600F20FFF776FE0020ECE638
:1007C000003C02400838024000B500F045F80949F5
:1007D000096801F0F001F02292FAA2F2B2FA82F274
:1007E000D140054A515CC840044908600846006889
:1007F00000BD000008380240B614000808000020C0
:1008000000B5FFF7E1FF0749096801F4E0514FF433
:10081000E05292FAA2F2B2FA82F2D140024A515C5C
:10082000C84000BD08380240B614000800B5FFF704
:10083000CBFF0749096801F460414FF4604292FA26
:10084000A2F2B2FA82F2D140024A515CC84000BD25
:1008500008380240B614000870B5002100220023B9
:1008600000202B4C246804F00C0424B1042C04D088
:10087000082C48D103E0274847E0274845E0244CAE
:10088000241F246804F03F01214C241F246804F431
:1008900080044FF4800595FAA5F5B5FA85F5EC408E
:1008A00084B11D4CB4FBF1F5194C241F246847F6A4
:1008B000C076344096FAA6F6B6FA86F6F44005FB02
:1008C00004F20FE0134CB4FBF1F5114C241F246823
:1008D00047F6C076344096FAA6F6B6FA86F6F440A5
:1008E00005FB04F20A4C241F246804F440344FF43E
:1008F000403595FAA5F5B5FA85F5EC40641C630022
:10090000B2FBF3F001E0034800BF00BF70BD000080
:10091000083802400024F40040787D0170B5044698
:100920000025207800F00100002867D0F648006814
:1009300000F00C0004280DD0F348006800F00C0013
:10094000082813D1F048001F006800F48000B0F5BB
:10095000800F0BD1EC4808380068C0F340400028F5
:100960004CD06068012849D0012070BD0020E649C4
:10097000891F0870FFF76CFD054608E0FFF768FD6A
:10098000401B41F28831884201D90320EDE7DE485F
:1009900008380068C0F340400028EFD12079DA49D8
:1009A000891F08706068012814D1FFF751FD0546C2
:1009B00008E0FFF74DFD401B41F28831884201D924
:1009C0000320D2E7D04808380068C0F34040002830
:1009D000EFD013E0FFF73CFD054608E0FFF738FDD8
:1009E000401B41F28831884201D90320BDE7C64847
:1009F00008380068C0F340400028EFD1207800F0AC
:100A00000200022869D1C048006800F00C0058B10B
:100A1000BD48006800F00C00082821D1BA48001F2A
:100A2000006800F48000D8B9B74808380068C0F3FF
:100A3000400020B1E068012801D0012095E7B248CC
:100A40000838006820F0F800F82292FAA2F2B2FA10
:100A500082F2216991400843AB49083908603CE0C3
:100A6000E06828B30120A9490860FFF7F1FC0546BA
:100A700006E0FFF7EDFC401B642801D9032074E772
:100A8000A14808380068C0F340000028F1D09E4813
:100A90000838006820F0F800F82292FAA2F2B2FAC0
:100AA00082F221699140084397490839086014E0AF
:100AB000002096490860FFF7CBFC054606E0FFF7EB
:100AC000C7FC401B642801D903204EE78E48083834
:100AD0000068C0F340000028F1D1207800F0080041
:100AE00008282CD16069A8B1012089490860FFF766
:100AF000AFFC054606E0FFF7ABFC401B642801D9BC
:100B0000032032E780486C300068C0F340000028C2
:100B1000F1D014E000207E490860FFF799FC0546FB
:100B200006E0FFF795FC401B642801D903201CE771
:100B300075486C300068C0F340000028F1D120787F
:100B400000F00400042866D16F483830006840F097
:100B500080506D49383108606E48006840F48070FC
:100B60006C490860FFF774FC054606E0FFF770FC6F
:100B7000401B642801D90320F7E66648006800F4AA
:100B800080700028F2D000205F4968310870FFF7BC
:100B90005FFC054608E0FFF75BFC401B41F2883133
:100BA000884201D90320E0E6574868300068C0F366
:100BB00040000028EFD1207A534968310870A068BE
:100BC000012814D1FFF744FC054608E0FFF740FC7C
:100BD000401B41F28831884201D90320C5E64A48CA
:100BE00068300068C0F340000028EFD013E0FFF742
:100BF0002FFC054608E0FFF72BFC401B41F2883133
:100C0000884201D90320B0E63F4868300068C0F34D
:100C100040000028EFD1A069F0B33B48006800F025
:100C20000C0008286BD0A069022852D10020374957
:100C30000866FFF70DFC054606E0FFF709FC401BC0
:100C4000642801D9032090E62F4808380068C0F3D3
:100C500040600028F1D1206A40F0005047F6C07291
:100C600092FAA2F2B2FA82F2616A9140084301223A
:100C7000A16AC2EB51014FF4403292FAA2F2B2FAE9
:100C800082F291400843E16908434FF0706292FAA2
:100C9000A2F2B2FA82F200E033E0E16A9140084346
:100CA0001949091F0860012018490866FFF7D0FBA1
:100CB000054606E0FFF7CCFB401B642801D9032062
:100CC00053E6114808380068C0F340600028F1D0AE
:100CD00017E000200D490866FFF7BAFB054606E05D
:100CE000FFF7B6FB401B642801D903203DE6064808
:100CF00008380068C0F340600028F1D101E001200D
:100D000033E6002031E60000083802400000474288
:100D1000800E47420070004070B504462546681EAC
:100D2000B0F1807F01D301200FE0681E4FF0E02179
:100D300048610F214FF0FF3000F0FAF800204FF02B
:100D4000E021886107200861002070BD10B50446CD
:100D50000CB9012010BDA06900B100E000BF94F8FB
:100D6000390010B9204600F026F8022084F8390036
:100D70002068C06820F400502168C860204600F058
:100D8000B5F92068006920F4904021680861206866
:100D9000406920F02A00216848612068C06840F45A
:100DA00000502168C860002084F83A00012084F8CF
:100DB00039000020CEE770472DE9F04704460D4684
:100DC000164699464FF0000894F83980B8F1010FA3
:100DD00002D0B8F1220F66D105B116B90120BDE8E5
:100DE000F08700BF94F83800012801D10220F6E70F
:100DF000012084F8380000BF002084F83A0094F8FD
:100E00003900222803D1322084F8390002E0122070
:100E100084F83900A684E68428E0E08C401EE08453
:100E2000A068B0F5805F14D14B4600228021204697
:100E300000F070FA08B10320D1E72F463888C0F3DC
:100E4000080021684860206908B9AD1C0EE06D1CDF
:100E50000CE04B4600228021204600F05BFA08B1EE
:100E60000320BCE715F8010B21684860E08C0028DE
:100E7000D3DC4B4600224021204600F04BFA08B15B
:100E80000320ACE794F83900322803D1222084F8FB
:100E9000390002E0012084F8390000BF002084F806
:100EA000380000BF9BE7022099E7000010B586B02C
:100EB00004461048006840F010000E4908600E48D3
:100EC00030F8140001900120029003900220049059
:100ED0000A4951F8240001A9FFF7ACF9064A32F893
:100EE0001410064A52F824000022FFF7ABFA06B0AD
:100EF00010BD000030380240B4140008000000208B
:100F000010B50446044A32F81410044A52F824007A
:100F1000FFF794FA10BD0000B41400080000002090
:100F200002480068C0F30220704700000CED00E0AA
:100F300010B5002807DA0A07140E054A00F00F035F
:100F40001B1FD45403E00A07130E024A135410BDAA
:100F500018ED00E000E400E010B5FFF77FFA10BDE7
:100F600000B591B01848006840F0805016490860FC
:100F70001648006840F4404014490860012005907C
:100F8000069002200B9041050C9118210D914FF411
:100F9000A8710E9102210F910721109105A8FFF76A
:100FA000BDFC0D20009002200190002002904FF423
:100FB000A05003904FF48050049005216846FFF73D
:100FC000D9FA11B000BD0000403802400070004066
:100FD0001448006840F47000124908601248006824
:100FE00040F001001049086000200F4908310860F6
:100FF0000D4800680D4908400B4908600C48091D60
:101000000860081F006820F48020091F0860002085
:1010100005490C3108604FF00060024980390860D2
:101020007047000088ED00E000380240FFFFF6FE48
:10103000103000247047000000B585B022480068D9
:1010400040F01000204908600846006840F0100099
:1010500008601D481030006840F080401A49103187
:101060000860881500900220019000200290022064
:10107000039069461548FFF7DDF880200090694627
:101080001248FFF7D7F81248124908604FF416507B
:10109000486000210F488160C160016181610C21BD
:1010A0004161FFF753FE08B1FFF7AEF84FF4FA7055
:1010B000FFF7B3F841F28833132207A10548FFF781
:1010C0007BFE05B000BD0000303802400010024039
:1010D00000780040200000200A0D2055415254376E
:1010E000206973206F6B2121210A0D002DE9F04149
:1010F00004460025A06900B100BF2068056925F4F9
:101100004055E0680543206805612068C56849F2DC
:101110000C6085432169A068084361690843E1695F
:10112000084305432068C5602068456925F440757B
:10113000A069054320684561E069B0F5004F72D1B0
:1011400072492068884203D071492068884234D1AE
:10115000FFF76CFB00EBC00101EB00106168490078
:10116000B0FBF1F06421B0FBF1F6FFF75FFB00EBA1
:10117000C00101EB001061684900B0FBF1F7FFF717
:1011800055FB00EBC00101EB001061684900B0FBAA
:10119000F1F06421B0FBF1F000EBC00101EB0010B5
:1011A000A7EB8000322101EB00106421B0FBF1F0CD
:1011B00066F31F1021688860A6E0FFF721FB00EBB3
:1011C000C00101EB001061684900B0FBF1F064213F
:1011D000B0FBF1F6FFF714FB00EBC00101EB0010D0
:1011E00061684900B0FBF1F7FFF70AFB00EBC001B3
:1011F00001EB001061684900B0FBF1F06421B0FB25
:10120000F1F000EBC00101EB0010A7EB80003221F0
:1012100001EB00106421B0FBF1F066F31F102168B0
:10122000886071E0FFE739492068884203D0384977
:101230002068884234D1FFF7F9FA00EBC00101EBD6
:10124000001061688900B0FBF1F06421B0FBF1F699
:10125000FFF7ECFA00EBC00101EB001061688900B8
:10126000B0FBF1F7FFF7E2FA00EBC00101EB001071
:1012700061688900B0FBF1F06421B0FBF1F000EB94
:10128000C00101EB0010A7EB8000322101EB001040
:101290006421B0FBF1F066F31F102168886033E031
:1012A000FFF7AEFA00EBC00101EB001061688900A6
:1012B000B0FBF1F06421B0FBF1F6FFF7A1FA00EB0F
:1012C000C00101EB001061688900B0FBF1F7FFF786
:1012D00097FA00EBC00101EB001061688900B0FBD8
:1012E000F1F06421B0FBF1F000EBC00101EB001064
:1012F000A7EB8000322101EB00106421B0FBF1F07C
:1013000066F31F1021688860BDE8F081001001407D
:10131000001401402DE9F04104460E4617461D46D3
:101320004FF00008FFF794F880469FBB2BE0681C45
:1013300048B32DB1FFF78CF8A0EB0800A84222D9E2
:101340002068C06820F080002168C8602068C068FC
:1013500020F020002168C8602068C06820F48070F8
:101360002168C8602068406920F001002168486158
:10137000012084F8390000BF002084F8380000BF45
:101380000320BDE8F081206800683040B04202D1FF
:10139000012001E003E000200028C8D035E02AE069
:1013A000681C40B32DB1FFF753F8A0EB0800A8422A
:1013B00021D92068C06820F080002168C8602068BA
:1013C000C06820F020002168C8602068C06820F450
:1013D00080702168C8602068406920F001002168A1
:1013E0004861012084F8390000BF002084F83800EB
:1013F00000BF0320C5E7206800683040B04201D13B
:10140000012000E000200028CAD10020B9E7000038
:10141000014A024900F013B8611400081C000020C2
:1014200002E008C8121F08C1002AFAD170477047AD
:10143000002001E001C1121F002AFBD170472DE9F5
:10144000F04116460F460446002503E03946B047F2
:10145000641C6D1C20780028F8D12846BDE8F08176
:1014600013B50C464FF6FF73012269460248FFF799
:10147000A3FC00981CBD000020000020FEF7F6FF32
:10148000FFF76EFD0020FFF711FDFFF7D5FD06E029
:1014900003A0FFF7BDFF40F2DC50FEF7BEFEF7E70A
:1014A0000A0D2055415254206973206F6B21212170
:1014B0000A0D0000001000000000010203040102F8
:1014C0000304060708090000E814000800000020D3
:1014D000200000002014000808150008200000204B
:1014E000400400003014000800100240000000001A
:1014F0000024F400000000000000000001020304CA
:081500000607080900000000C5
:04000005080001AD41
:00000001FF
