:020000040800F2
:1000000020050020C1010008C9010008CB0100083B
:10001000CD010008CF010008D10100080000000058
:10002000000000000000000000000000D3010008F4
:10003000D501000800000000D70100086327000870
:10004000DB010008DB010008DB010008DB01000820
:10005000DB010008DB010008DB01000809030008E0
:10006000DB010008DB0100082D030008DB010008AC
:10007000DB010008DB010008DB010008DB010008F0
:10008000DB010008DB010008DB010008DB010008E0
:10009000DB010008DB010008DB010008DB010008D0
:1000A000DB010008DB010008DB010008DB010008C0
:1000B000DB010008DB010008DB010008DB010008B0
:1000C000DB010008DB010008DB010008DB010008A0
:1000D000DB010008DB010008DB010008DB01000890
:1000E000E5020008DB010008DB010008DB01000875
:1000F000DB010008DB010008DB010008DB01000870
:10010000DB010008DB01000841280008DB010008D2
:10011000DB010008DB010008DB010008DB0100084F
:10012000DB010008DB010008DB010008DB0100083F
:10013000DB010008DB010008DB010008DB0100082F
:10014000DB010008DB010008DB010008DB0100081F
:10015000DB010008DB010008DB010008DB0100080F
:10016000DB010008DB010008DB010008DB010008FF
:10017000DB010008DB010008DB01000800000000D3
:10018000DB010008DB0100088D2A0008DB01000804
:10019000DB010008DB010008DB010008DB010008CF
:1001A0000000000000000000DB010008DFF80CD0B8
:1001B00000F02EF8004800472534000820050020F4
:1001C0000648804706480047FEE7FEE7FEE7FEE7F1
:1001D000FEE7FEE7FEE7FEE7FEE7FEE7DD270008B5
:1001E000AD01000830B50B46014600202022012455
:1001F00009E021FA02F59D4205D303FA02F5491BF5
:1002000004FA02F52844151EA2F10102F1DC30BD0A
:10021000064C074D06E0E06840F0010394E8070053
:1002200098471034AC42F6D3FFF7C4FF6834000897
:100230008834000870B520210D4800F0A9FA044662
:1002400080210B4800F0A4FA05460121094800F07E
:100250009FFA064614B908A002F0C8FF15B90FA00E
:1002600002F0C4FF16B916A002F0C0FF70BD000076
:1002700000040240000802405644445F4252494391
:100280004B5F56414C4944202D2D20B5E7D4B4D3C3
:10029000C9B5E7B3D8CCE1B9A90D0A005644445F0B
:1002A000534552564F5F56414C4944202D2D20B5A1
:1002B000E7D4B4D3C9B5E7B5F7CCE1B9A90D0A00C5
:1002C0005644445F425249434B5F56414C49442097
:1002D0002D2D20B5E7D4B4D3C9555342CCE1B9A9EB
:1002E0000D0A000010B50648006800F4004030B167
:1002F0004FF4004002490860024802F093F810BD34
:10030000143C0140EC00002010B50648006800F0E5
:10031000020028B1044801F071FF02200149086081
:1003200010BD0000143C01401001002010B506482B
:10033000006800F0100028B1044801F079FE102098
:100340000149086010BD0000143C0140000100207C
:1003500031B5002400F0AEFA044600BF00F0AAFA5E
:10036000001B00998842F9D338BD00002DE9F04701
:1003700006460C464FF00009C8460025208880B28A
:1003800000B103E0C321E1A003F02CF8606830B3B2
:100390006068012823D06068112820D06068022896
:1003A0001DD0606812281AD0E6496068884216D0CD
:1003B000E5496068884212D0E449606888420ED0FE
:1003C000E349606888420AD0E2496068884206D002
:1003D000E1496068884202D06068032800D103E0E8
:1003E000C421CAA002F0FEFFA06828B1A0680128BD
:1003F00002D0A068022800D103E0C521C3A002F00A
:10040000F1FF00277CE1012000FA07F9206800EAEB
:100410000908C8457ED16068022802D060681228A9
:1004200079D1206900287ED0206909287BD02069F5
:10043000002878D02069002875D02069002872D063
:10044000206900286FD0206901286CD0206901281C
:1004500069D02069022866D02069022863D020690B
:10046000022860D0206903285DD0206904285AD072
:100470002069042857D02069042854D02069052811
:1004800051D0206905284ED0206909284BD0206919
:10049000062848D02069092845D02069072842D07D
:1004A000206907283FD0206907283CD02069082808
:1004B00039D02069082836D02069082833D020692F
:1004C000092830D0206909282DD020690A282AD08F
:1004D00020690A2827D020690B2824D020690C28FD
:1004E00021D020690C281ED020690D281BD020693E
:1004F0000F2818D02069052815D02069052812D0AA
:10050000206905280FD0206908280CD02069082808
:1005100009D002E0EAE01FE005E020690C2802D0E3
:100520002069062800D103E0D62178A002F05AFF06
:10053000F90806F1200050F821507807C10E0F206D
:10054000884085437907C90E206988400543F9082A
:1005500006F1200040F821503568790003208840DA
:100560008543207900F00300790088400543356019
:100570006068012808D06068022805D060681128EA
:1005800002D06068122823D1E06840B1E0680128F9
:1005900005D0E068022802D0E068032800D103E01B
:1005A000E9215AA002F01EFFB568790003208840B7
:1005B00085437900E06888400543B560756801208F
:1005C000B84085432079C0F30010B84005437560FA
:1005D000F56879000320884085437900A068884049
:1005E0000543F560606800F08050B0F1805F7DD118
:1005F0005A48006840F48040584908605848B90893
:1006000050F82150B807010F0F2088408543554806
:10061000864201D100202DE05348864201D10120BD
:1006200028E05248864201D1022023E05048864209
:1006300001D103201EE04F48864201D1042019E079
:100640004D48864201D1052014E04C48864201D134
:1006500006200FE04A48864201D107200AE04948B7
:10066000864201D1082005E04748864201D1092091
:1006700000E00A20B907090F884005433848B90847
:1006800040F821504148056825EA0805606800F4F3
:100690008030B0F5803F01D145EA08053B48056050
:1006A000001D056825EA0805606800F40030B0F513
:1006B000003F01D145EA08053448001D0560001DD2
:1006C000056825EA0805606800F48010B0F5801F11
:1006D00001D145EA08052D4808300560001D056870
:1006E00025EA0805606800F4001000E007E0B0F5B6
:1006F000001F01D145EA080524480C3005607F1C25
:10070000102FFFF480AEBDE8F08700005352435C29
:100710006C69625C53544D3332463478785F48419B
:100720004C5F4472697665725C5372635C73746D7E
:100730003332663478785F68616C5F6770696F2EFA
:1007400063000000000011100000211000003110B3
:100750000000121000002210000032104438024045
:100760000838014000000240000402400008024036
:10077000000C024000100240001402400018024029
:10078000001C02400020024000240240003C0140C6
:1007900070B506460C46A0B200B104E040F28511E7
:1007A00005A002F01FFE3069204008B1012500E0DD
:1007B0000025284670BD00005352435C6C69625CA2
:1007C00053544D3332463478785F48414C5F44721D
:1007D000697665725C5372635C73746D3332663430
:1007E00078785F68616C5F6770696F2E63000000E6
:1007F00070B504460D46A8B200B104E040F2BD1148
:1008000003A002F0EFFD60696840606170BD000008
:100810005352435C6C69625C53544D3332463478B6
:10082000785F48414C5F4472697665725C537263CD
:100830005C73746D3332663478785F68616C5F67BF
:1008400070696F2E6300000070B506460C461546B1
:10085000A0B200B104E04FF4D37108A002F0C2FDD1
:100860000DB1012D00D104E040F2A71103A002F068
:10087000B9FD0DB1348300E0748370BD5352435C05
:100880006C69625C53544D3332463478785F48412A
:100890004C5F4472697665725C5372635C73746D0D
:1008A0003332663478785F68616C5F6770696F2E89
:1008B0006300000001480068704700000400002049
:1008C00002480068401C014908607047040000208D
:1008D00010B50D48006840F400700B4908600846E8
:1008E000006840F4806008600846006840F480704A
:1008F0000860032000F0A2F80F2000F007F800F0D5
:1009000017F8002010BD0000003C024070B50446FE
:1009100000F0DAFA4FF47A71B0FBF1F5284601F0F5
:10092000EDF800222146501E00F020F8002070BD96
:100930007047000000BF00F01F0201219140034AF0
:10094000430942F8231000BF7047000080E100E037
:1009500000BF00F01F02012191404209920002F104
:10096000E022C2F8001100BF704700002DE9F05FDF
:1009700080460C4615460027102D00D203E0BC210E
:1009800020A002F02FFD102C00D203E0BD211DA0FD
:1009900002F028FD01F0AEFD0746394622462B46FF
:1009A00001F00700C0F1070ABAF1040F02D94FF0B5
:1009B000040A01E0C0F1070AD14600F1040ABAF1C5
:1009C000070F02D24FF0000A01E0A0F1030AD4465B
:1009D0004FF0010A0AFA09FAAAF1010A0AEA020A20
:1009E0000AFA0CFA4FF0010B0BFA0CFBABF1010BFE
:1009F0000BEA030B4AEA0B063146404601F082FD42
:100A0000BDE8F09F5352435C6C69625C53544D33B4
:100A100032463478785F48414C5F4472697665723B
:100A20005C5372635C73746D3332663478785F68DC
:100A3000616C5F636F727465782E630010B5044655
:100A4000072C07D0062C05D0052C03D0042C01D090
:100A5000032C00D103E0A42109A002F0C3FC00BFD5
:100A600004F00701144A10684FF6FF021040134AC1
:100A7000024342EA0120104A106000BF10BD00008E
:100A80005352435C6C69625C53544D333246347844
:100A9000785F48414C5F4472697665725C5372635B
:100AA0005C73746D3332663478785F68616C5F6351
:100AB0006F727465782E63000CED00E00000FA059B
:100AC00070B504460D4600262068012803D320682F
:100AD0000F2800D804E040F25521EBA002F082FC80
:100AE000EDB1012D1BD0022D19D0032D17D0042DEF
:100AF00015D0052D13D0062D11D0072D0FD0082DA0
:100B00000DD0092D0BD00A2D09D00B2D07D00C2D9F
:100B100005D00D2D03D00E2D01D00F2D00D104E0F6
:100B200040F25621D8A002F05DFCE548006800F0D4
:100B30000F00A84276D2E2490D700846006800F026
:100B40000F00A84201D0012070BD207800F0020003
:100B5000022827D1A068B8B1A068802814D0A06866
:100B6000902811D0A068A0280ED0A068B0280BD083
:100B7000A068C02808D0A068D02805D0A068E028C8
:100B800002D0A068F02800D104E04FF41B71BEA091
:100B900002F028FCCB48006820F0F000A168084370
:100BA000C8490860207800F0010000284AD0606839
:100BB00028B16068012802D06068022800D104E0F2
:100BC00040F27321B0A002F00DFC6068012807D14B
:100BD000BC4808380068C0F34040A0B90120B3E722
:100BE0006068022807D1B74808380068C0F3406041
:100BF00048B90120A8E7B34808380068C0F34000AE
:100C000008B90120A0E7AF48006820F00300616840
:100C10000843AC490860FFF74DFE064660680128AE
:100C200011D109E034E0FFF745FE801B41F2883125
:100C3000884201D9032087E7A248006800F00C0031
:100C40000428F0D1CFE06068022810D108E0FFF757
:100C500031FE801B41F28831884201D9032073E7BD
:100C60009848006800F00C000828F0D1BBE008E0CC
:100C7000FFF720FE801B41F28831884201D9032012
:100C800062E79048006800F00C000028F0D1AAE06C
:100C9000207800F00200022827D1A068B8B1A0682F
:100CA000802814D0A068902811D0A068A0280ED069
:100CB000A068B0280BD0A068C02808D0A068D028B1
:100CC00005D0A068E02802D0A068F02800D104E098
:100CD00040F2BB216CA002F085FB7A48006820F04E
:100CE000F000A168084377490860207800F001000F
:100CF00000286ED0606828B16068012802D0606862
:100D0000022800D104E040F2C2215FA002F06AFB99
:100D10006068012807D16B4808380068C0F340407C
:100D2000A0B9012010E76068022807D1654808389B
:100D30000068C0F3406048B9012005E76148083801
:100D40000068C0F3400008B90120FDE65D48006876
:100D500020F00300616808435A490860FFF7AAFDC4
:100D600006466068012810D108E0FFF7A3FD801B4C
:100D700041F28831884201D90320E5E651480068F4
:100D800000F00C000428F0D123E06068022810D1A4
:100D900008E0FFF78FFD801B41F28831884201D9BE
:100DA0000320D1E64748006800F00C000828F0D185
:100DB0000FE008E0FFF77EFD801B41F2883188429A
:100DC00001D90320C0E63F48006800F00C0000286D
:100DD000F0D13B490D700846006800F00F00A842B2
:100DE00001D00120B0E6207800F0040004281FD1D3
:100DF000E06878B1E068B0F5805F0BD0E068B0F5EE
:100E0000A05F07D0E068B0F5C05F03D0E068B0F540
:100E1000E05F00D104E040F212311BA002F0E2FAE0
:100E20002848006820F4E050E1680843254908603C
:100E3000207800F00800082820D1206978B12069C6
:100E4000B0F5805F0BD02069B0F5A05F07D02069B6
:100E5000B0F5C05F03D02069B0F5E05F00D104E0D9
:100E600040F2193108A002F0BDFA1648006820F4DB
:100E70006040216940EAC100124908600F20FFF775
:100E800045FD002060E600005352435C6C69625CE3
:100E900053544D3332463478785F48414C5F447246
:100EA000697665725C5372635C73746D3332663459
:100EB00078785F68616C5F7263632E630000000086
:100EC000003C02400838024000B500F045F80949EE
:100ED000096801F0F001F02292FAA2F2B2FA82F26D
:100EE000D140054A515CC840044908600846006882
:100EF00000BD0000083802405834000808000020F7
:100F000000B5FFF7E1FF0749096801F4E0514FF42C
:100F1000E05292FAA2F2B2FA82F2D140024A515C55
:100F2000C84000BD083802405834000800B5FFF73B
:100F3000CBFF0749096801F460414FF4604292FA1F
:100F4000A2F2B2FA82F2D140024A515CC84000BD1E
:100F5000083802405834000870B5002100220023F0
:100F600000202B4C246804F00C0424B1042C04D081
:100F7000082C48D103E0274847E0274845E0244CA7
:100F8000241F246804F03F01214C241F246804F42A
:100F900080044FF4800595FAA5F5B5FA85F5EC4087
:100FA00084B11D4CB4FBF1F5194C241F246847F69D
:100FB000C076344096FAA6F6B6FA86F6F44005FBFB
:100FC00004F20FE0134CB4FBF1F5114C241F24681C
:100FD00047F6C076344096FAA6F6B6FA86F6F4409E
:100FE00005FB04F20A4C241F246804F440344FF437
:100FF000403595FAA5F5B5FA85F5EC40641C63001B
:10100000B2FBF3F001E0034800BF00BF70BD000079
:10101000083802400024F40000366E0170B5044622
:10102000002520680F2800D803E0F721F6A002F081
:10103000D9F9207800F00100002874D0606828B148
:101040006068012802D06068052800D103E0FC2117
:10105000EDA002F0C7F9FA48006800F00C0004287F
:101060000DD0F748006800F00C00082813D1F448B0
:10107000001F006800F48000B0F5800F0BD1F0482D
:1010800008380068C0F3404000284CD06068012850
:1010900049D0012070BD0020E949891F0870FFF781
:1010A00009FC054608E0FFF705FC401B41F28831CA
:1010B000884201D90320EDE7E14808380068C0F311
:1010C00040400028EFD12079DD49891F0870606811
:1010D000012814D1FFF7EEFB054608E0FFF7EAFB15
:1010E000401B41F28831884201D90320D2E7D4481D
:1010F00008380068C0F340400028EFD013E0FFF745
:10110000D9FB054608E0FFF7D5FB401B41F28831CB
:10111000884201D90320BDE7C94808380068C0F3F8
:1011200040400028EFD1207800F0020002287DD155
:10113000E06810B1E068012800D104E04FF49E712E
:10114000B1A002F04FF920691F2800D804E040F256
:101150003D11ADA002F046F9B948006800F00C005E
:1011600058B1B748006800F00C00082821D1B448F5
:10117000001F006800F48000D8B9B1480838006842
:10118000C0F3400020B1E068012801D0012081E7D0
:10119000AB480838006820F0F800F82292FAA2F272
:1011A000B2FA82F2216991400843A54908390860E2
:1011B0003CE0E06828B30120A2490860FFF77AFB11
:1011C000054606E0FFF776FB401B642801D90320A3
:1011D00060E79B4808380068C0F340000028F1D061
:1011E00097480838006820F0F800F82292FAA2F236
:1011F000B2FA82F2216991400843914908390860A6
:1012000014E000208F490860FFF754FB054606E014
:10121000FFF750FB401B642801D903203AE78848B8
:1012200008380068C0F340000028F1D1207800F0B1
:101230000800082837D1606910B16069012800D121
:1012400004E04FF4BE7170A002F0CCF86069A8B160
:1012500001207D490860FFF72DFB054606E0FFF7FA
:1012600029FB401B642801D9032013E774486C3024
:101270000068C0F340000028F1D014E0002072495B
:101280000860FFF717FB054606E0FFF713FB401B5E
:10129000642801D90320FDE669486C300068C0F37A
:1012A00040000028F1D1207800F00400042874D117
:1012B000A06828B1A068012802D0A068052800D144
:1012C00004E04FF4D37150A002F08CF85C48383041
:1012D000006840F080505A49383108605B48006827
:1012E00040F4807059490860FFF7E4FA054606E0CB
:1012F000FFF7E0FA401B642801D90320CAE65348EF
:10130000006800F480700028F2D000204C49683159
:101310000870FFF7CFFA054608E0FFF7CBFA401B4D
:1013200041F28831884201D90320B3E6444868304D
:101330000068C0F340000028EFD1207A40496831AE
:101340000870A068012814D1FFF7B4FA054608E038
:10135000FFF7B0FA401B41F28831884201D90320DF
:1013600098E6374868300068C0F340000028EFD0A6
:1013700013E0FFF79FFA054608E0FFF79BFA401BD2
:1013800041F28831884201D9032083E62C48683035
:101390000068C0F340000028EFD1A06928B1A0691F
:1013A000012802D0A069022800D104E04FF4F571B1
:1013B00015A002F017F8A069002876D02048006830
:1013C00000F00C00082871D0A06902286FD1E069F4
:1013D00018B1E069B0F5800F00D104E040F2F311DC
:1013E00009A001F0FFFF206A3F2800D804E04FF475
:1013F000FA7105A001F0F6FF606AC02828D3606A80
:10140000B0F5D87F24D829E05352435C6C69625C04
:1014100053544D3332463478785F48414C5F4472C0
:10142000697665725C5372635C73746D33326634D3
:1014300078785F68616C5F7263632E630000000000
:101440000838024000004742800E474200700040CA
:1014500040F2F511AFF2500001F0C4FFA06A02287B
:1014600008D0A06A042805D0A06A062802D0A06A85
:10147000082800D105E04FF4FB71AFF2740001F0D1
:10148000B1FFE06A042803D3E06A0F2800D805E022
:1014900040F2F711AFF2900001F0A4FF00203549AF
:1014A0000866FFF707FA054609E060E05DE047E0FF
:1014B000FFF700FA401B642801D90320EAE52E4813
:1014C0000068C0F340600028F2D1206A40F000506C
:1014D00047F6C07292FAA2F2B2FA82F2616A9140C1
:1014E00008430122A16AC2EB51014FF4403292FA43
:1014F000A2F2B2FA82F291400843E16908434FF048
:10150000706292FAA2F2B2FA82F2E16A9140084362
:101510001949091D0860012016490866FFF7CAF934
:10152000054606E0FFF7C6F9401B642801D90320F1
:10153000B0E511480068C0F340600028F2D016E022
:1015400000200C490866FFF7B5F9054606E0FFF7ED
:10155000B1F9401B642801D903209BE506480068C7
:10156000C0F340600028F2D101E0012092E50020A4
:1015700090E50000000047420038024010B50446E4
:101580000CB9012010BD606818B16068B0F5827FA9
:1015900000D103E0B22161A001F024FFA06838B1BE
:1015A000A068B0F5806F03D0A068B0F5004F00D1FF
:1015B00003E0B32159A001F015FFE068B0F5006F1A
:1015C00001D0E06800B903E0B42154A001F00AFFA3
:1015D000206910B12069022800D103E0B5214FA095
:1015E00001F000FF606910B16069012800D103E0DB
:1015F000B6214AA001F0F6FEA069B0F5007F05D043
:10160000A06918B1A069B0F5802F00D103E0B7211F
:1016100042A001F0E7FEE069A0B1E069082811D01E
:10162000E06910280ED0E06918280BD0E069202866
:1016300008D0E069282805D0E069302802D0E069A8
:10164000382800D103E0B82134A001F0CBFE206A95
:1016500010B1206A802800D103E0B9212FA001F049
:10166000C1FE606A10B1606A102800D103E0BA219F
:101670002AA001F0B7FEA06A18B1A06AB0F5005F19
:1016800000D103E0BB2125A001F0ACFEE06A20B14F
:10169000E06AB0F5803F00D203E0BC211FA001F05A
:1016A000A1FE94F8510010B9204600F053F8022032
:1016B00084F851002068006820F04000216808602C
:1016C000D4E901010843E1680843216908436169DD
:1016D0000843218B01F400710843E1690843216A42
:1016E0000843A16A0843216808600421A06901EA4F
:1016F0001040616A0843216848602168E06A086117
:101700002068C06920F400602168C861002084F866
:101710005200012084F85100002033E75352435C0B
:101720006C69625C53544D3332463478785F48417B
:101730004C5F4472697665725C5372635C73746D5E
:101740003332663478785F68616C5F7370692E63DA
:1017500000000000704700002DE9F84F04460E46D7
:1017600017461D46DDF828904FF00008C24694F851
:101770005180B8F1010F02D0B8F1220F74D10EB12F
:1017800007B115B90120BDE8F88FA06800B904E0E1
:1017900040F2A221CBA001F025FE00BF94F850003A
:1017A000012801D10220EEE7012084F8500000BF9B
:1017B00094F85100012802D1322084F85100002011
:1017C00084F85200A763A587E5872663A586E5868A
:1017D000A064E064A06AB0F5005F0DD100BF20688E
:1017E000006820F40050216808602068006840F418
:1017F00000502168086000BF2068006800F04000C9
:10180000402805D02068006840F04000216808604A
:10181000E068B0F5006F75D1606830B16068B0F510
:10182000827F0CD1E08E012809D1206B00882168CD
:10183000C860206B801C2063E08E401EE086E08E36
:10184000F0B9A06AB0F5005F05D12068006840F4E7
:101850008050216808604B4600220121204600F09C
:10186000F6FE10B103208EE72AE12068C068A16B64
:101870000880A06B801CA063E08F401EE087C6E05C
:1018800031E04B4600220221204600F0E0FE08B184
:10189000032078E7206B00882168C860206B801CDB
:1018A0002063E08E401EE086E08E48B9A06AB0F565
:1018B000005F05D12068006840F48050216808600E
:1018C0004B4600220121204600F0C1FE08B1032052
:1018D00059E72068C068A16B0880A06B801CA063DA
:1018E000E08F401EE087E08E0028CADC6068002898
:1018F000C5D14B4600220121204600F0A8FE10B1C0
:10190000032040E70AE02068C068A16B0880A06B54
:10191000801CA063E08F401EE08778E0606830B1F3
:101920006068B0F5827F0BD1E08E012808D1216B71
:10193000481C206308782168C860E08E401EE0865D
:10194000E08ED0B9A06AB0F5005F05D120680068CC
:1019500040F48050216808604B4600220121204657
:1019600000F075FE08B103200DE72068C068A16B88
:101970000870E08F401EE08749E030E04B460022CF
:101980000221204600F063FE08B10320FBE6216B34
:10199000481C206308782168C860E08E401EE086FD
:1019A000E08E48B9A06AB0F5005F05D120680068F4
:1019B00040F48050216808604B46002201212046F7
:1019C00000F045FE08B10320DDE62068C068C1B222
:1019D000A26B501CA0631170E08F401EE087E08E68
:1019E0000028CBDC606890B94B46002201212046DC
:1019F00000F02DFE08B10320C5E62068C068C1B222
:101A0000A26B501CA0631170E08F401EE087A06A9B
:101A1000B0F5005F12D14B4600220121204600F0B4
:101A200016FE38B194F8520040F0020084F85200DB
:101A30000320A8E62068C06880B200904B460122CF
:101A40008021204600F003FE38B194F8520040F0A7
:101A5000200084F85200032095E6012084F851000C
:101A600020688068C0F3001AA06AB0F5005F21D139
:101A7000BAF1000F1ED094F8520040F0020084F832
:101A80005200A06AB0F5005F0DD100BF2068006869
:101A900020F40050216808602068006840F400507D
:101AA0002168086000BF00BF002084F8500000BF1C
:101AB000012068E600BF002084F8500000BF62E605
:101AC000022060E65352435C6C69625C53544D33B0
:101AD00032463478785F48414C5F4472697665726B
:101AE0005C5372635C73746D3332663478785F680C
:101AF000616C5F7370692E630000000070B504466E
:101B00002546681EB0F1807F01D301200FE0681EDA
:101B10004FF0E02148610F214FF0FF3000F0F2FC60
:101B200000204FF0E021886107200861002070BD8F
:101B300010B504460CB9012010BD38492068884210
:101B400033D02068B0F1804F2FD0354920688842CB
:101B50002BD034492068884227D0334920688842F6
:101B600023D03249206888421FD0314920688842FA
:101B70001BD030492068884217D02F4920688842FE
:101B800013D02E49206888420FD02D492068884202
:101B90000BD02C492068884207D02B492068884206
:101BA00003D02A492068884200D103E0D12128A02F
:101BB00001F018FCA06858B1A068102808D0A068EF
:101BC000202805D0A068402802D0A068602800D155
:101BD00003E0D2211EA001F005FC206938B1206984
:101BE000B0F5807F03D02069B0F5007F00D103E01D
:101BF000D32117A001F0F6FB94F8390010B9204664
:101C000000F042F8022084F83900211D206800F01D
:101C1000CBFE012084F8390000208DE70000014050
:101C20000004004000080040000C0040001000408C
:101C30000014004000040140004001400044014005
:101C40000048014000180040001C004000200040F7
:101C50005352435C6C69625C53544D333246347862
:101C6000785F48414C5F4472697665725C53726379
:101C70005C73746D3332663478785F68616C5F745E
:101C8000696D2E63000000007047000010B5044627
:101C900025492068884233D02068B0F1804F2FD08A
:101CA0002249206888422BD021492068884227D0C9
:101CB00020492068884223D01F49206888421FD0CD
:101CC0001E49206888421BD01D492068884217D0D1
:101CD0001C492068884213D01B49206888420FD0D5
:101CE0001A49206888420BD019492068884207D0D9
:101CF00018492068884203D017492068884200D1DB
:101D000004E04FF4AB7115A001F06CFB2068C068D3
:101D100040F001002168C8602068006840F00100C0
:101D200021680860002010BD000001400004004050
:101D300000080040000C004000100040001400406B
:101D400000040140004001400044014000480140BF
:101D500000180040001C0040002000405352435C2B
:101D60006C69625C53544D3332463478785F484135
:101D70004C5F4472697665725C5372635C73746D18
:101D80003332663478785F68616C5F74696D2E6396
:101D90000000000010B504460CB9012010BDA06978
:101DA000A8B13349206888420BD032492068884264
:101DB00007D031492068884203D0304920688842E2
:101DC00000D129E0F2212EA001F00CFB24E02849EB
:101DD000206888421BD027492068884217D02649AE
:101DE0002068884213D03449206888420FD0334994
:101DF000206888420BD021492068884207D03049AA
:101E00002068884203D02F492068884200D103E02F
:101E1000F7211BA001F0E6FA94F8390010B920462A
:101E200000F052F8022084F839002068C06820F4DD
:101E300000502168C860204600F094FE20680069C8
:101E400020F49040216808612068406920F02A0051
:101E5000216848612068C06840F400502168C8606B
:101E6000002084F83A00012084F83900002095E72A
:101E700000100140004400400048004000140140B0
:101E80005352435C6C69625C53544D333246347830
:101E9000785F48414C5F4472697665725C53726347
:101EA0005C73746D3332663478785F68616C5F752B
:101EB0006172742E63000000004C0040005000402E
:101EC00000780040007C004070472DE9F047044650
:101ED0000D46164699464FF0000894F83980B8F13F
:101EE000010F02D0B8F1220F66D105B116B9012059
:101EF000BDE8F08700BF94F83800012801D1022026
:101F0000F6E7012084F8380000BF002084F83A008A
:101F100094F83900222803D1322084F8390002E0F5
:101F2000122084F83900A684E68428E0E08C401E64
:101F3000E084A068B0F5805F14D14B460022802178
:101F4000204600F0DBFF08B10320D1E72F46388898
:101F5000C0F3080021684860206908B9AD1C0EE094
:101F60006D1C0CE04B4600228021204600F0C6FF8D
:101F700008B10320BCE715F8010B21684860E08C2C
:101F80000028D3DC4B4600224021204600F0B6FF5B
:101F900008B10320ACE794F83900322803D122209D
:101FA00084F8390002E0012084F8390000BF0020E5
:101FB00084F8380000BF9BE7022099E710B586B08F
:101FC00004461048006840F010000E4908600E48B2
:101FD00030F8140001900120029003900220049038
:101FE0000A4951F8240001A9FEF7C0F9064A32F85F
:101FF0001410064A52F824000022FEF725FC06B011
:1020000010BD0000303802405634000800000020A7
:1020100010B50446044A32F81410044A52F8240059
:10202000FEF7E6FB10BD000056340008000000205B
:102030001CB5044600200090019006222821684625
:1020400000F02EF9FEF736FC20609DF800009DF8A8
:10205000011040EA012000B2A0809DF8020040EA91
:10206000002000B2E0809DF804009DF8031040EAD3
:10207000012000B2208102220521684600F010F9FB
:102080009DF800009DF8011040EA012000B2608137
:10209000012020731CBD000010B50122D1030248AD
:1020A000FEF7D2FB10BD00000008024010B5002270
:1020B0004FF400410148FEF7C7FB10BD0008024085
:1020C00000B585B04948006840F004004749086001
:1020D0004FF40040009001200190029003200390F3
:1020E00069464348FEF742F9FFF7D6FF3F480068CC
:1020F00040F002003D490860102000903D480190EA
:10210000012002900320039069463B48FEF72EF918
:102110003648006840F00200344908600220009010
:102120003448019001200290032003906946324810
:10213000FEF71CF9002204210A20FEF717FC0A20F2
:10214000FEF706FC002204210720FEF70FFC072003
:10215000FEF7FEFB00F0D4F880211F2000F092F87B
:102160000A20FEF7F5F800211F2000F08BF801206F
:10217000FEF7EEF89F21202000F084F80120FEF702
:10218000E7F8D821212000F07DF80120FEF7E0F8E3
:10219000F421242000F076F80120FEF7D9F8002180
:1021A000252000F06FF80120FEF7D2F8002126204C
:1021B00000F068F80120FEF7CBF80821122000F0AB
:1021C00061F80120FEF7C4F80421222000F05AF83B
:1021D0000120FEF7BDF80421232000F053F8012070
:1021E000FEF7B6F800F091F805B000BD30380240B7
:1021F0000008024000001110000402401CB5044613
:1022000000200090019006220821684600F048F85E
:10221000FEF750FB20609DF800009DF8011040EA99
:10222000012000B2A0809DF8020040EA002000B228
:10223000E0809DF804009DF8031040EA012000B200
:10224000208102220521684600F02AF89DF800004E
:102250009DF8011040EA012000B260810120207346
:102260001CBD000001B582B04FF4A040012301AABB
:1022700002A900900248FFF76FFA9DF804000EBD16
:102280009800002070B505460C46FFF70FFF284662
:10229000FFF7E8FF2046FFF7E5FFFFF7FDFE70BD03
:1022A0002DE9F04105460E461746FFF7FFFE46F0C2
:1022B000C0010E460846FFF7D5FF002405E0FF20C9
:1022C000FFF7D0FF2855601CC4B2BC42F7DBFFF714
:1022D000E3FEBDE8F081000010B5012204210248B0
:1022E000FEF7B2FA10BD00000008024010B500224F
:1022F00004210248FEF7A8FA10BD000000080240C1
:1023000010B52820FEF716FB10BD10B52820FEF7EB
:102310001FFB10BD00B585B03848006840F00400D0
:1023200036490860042000900120019002900320AB
:10233000039069463248FEF719F8FFF7CDFF2F48A2
:10234000006840F008002D4908604FF400400090FC
:102350002C480190012002900320039069462A48EE
:10236000FEF704F8002204212820FEF7FFFAFFF709
:10237000CCFF80216B2000F0AFF80A20FDF7E8FFCA
:1023800003216B2000F0A8F80120FDF7E1FF1021E8
:102390006A2000F0A1F80120FDF7DAFFF9211920E9
:1023A00000F09AF80120FDF7D3FF06211A2000F073
:1023B00093F80120FDF7CCFF10211B2000F08CF8D2
:1023C0000120FDF7C5FF08211C2000F085F8012041
:1023D000FDF7BEFF0121382000F07EF80120FDF757
:1023E000B7FF3021372000F077F80120FDF7B0FF6C
:1023F00006A000F0FBFE05B000BD00003038024032
:102400000008024000001110000C02404D505536EB
:10241000303030B3F5CABCBBAFCDEAB3C9210D0A29
:10242000000000001FB504460020009001900290BB
:1024300003900E223B21684600F0EEF8FEF73AFAD0
:1024400020609DF801009DF8001040EA012000B2D4
:10245000A0809DF803009DF8021040EA012000B220
:10246000E0809DF805009DF8041040EA012000B2CC
:1024700020819DF807009DF8061040EA012000B277
:1024800060819DF809009DF8081040EA012000B223
:10249000A0819DF80B009DF80A1040EA012000B2CF
:1024A000E0819DF80D009DF80C1040EA012000B27B
:1024B00020820120A0741FBD01B582B04FF4A0405E
:1024C000012301AA02A900900248FFF745F99DF8EF
:1024D00004000EBD9800002070B505460C46FFF7BD
:1024E00005FF2846FFF7E8FF2046FFF7E5FFFFF767
:1024F000F3FE70BD02480068C0F302207047000080
:102500000CED00E010B5002807DA0A07140E054AA2
:1025100000F00F031B1FD45403E00A07130E024AF6
:10252000135410BD18ED00E000E400E010B500F019
:102530002DFEFDF77FFE00F0D1FD10BD00B585B08A
:102540003148006840F001002F4908602E481430DF
:10255000006840F480502C4914310860202000901D
:102560000220019000200290032003900520049097
:1025700069462648FDF7FAFE4020009005200490A9
:1025800069462248FDF7F2FE802000900520049065
:1025900069461E48FDF7EAFE012220211B48FEF78E
:1025A00053F9012240211948FEF74EF901228021FA
:1025B0001648FEF749F916481649086000211548E3
:1025C00081604FF482701349486000211148C16056
:1025D0000221016101214161490281613021C16112
:1025E0000021016281620721C16200214162FEF780
:1025F000C5FF08480068006840F0400005490968C8
:10260000086005B000BD0000303802400000024004
:1026100000300140980000202DE9F04105460E46AB
:102620001746FFF763FE46F080010E460846FFF7A7
:1026300043FF002405E0FF20FFF73EFF2855601C04
:10264000C4B2BC42F7DBFFF747FEBDE8F0812DE9DD
:10265000F04104460E4617461D464FF00008FEF7AF
:1026600029F98046002F3ED132E0681C78B32DB1A5
:10267000FEF720F9A0EB0800A84229D9206840689D
:1026800020F0E000216848602068006820F04000E9
:1026900021680860A06AB0F5005F0DD100BF206816
:1026A000006820F40050216808602068006840F449
:1026B00000502168086000BF012084F8510000BF6D
:1026C000002084F8500000BF0320BDE8F081FFE740
:1026D000206880683040B04201D1012000E0002035
:1026E0000028C2D03BE030E0681C70B32DB1FEF78B
:1026F000E1F8A0EB0800A84227D92068406820F044
:10270000E000216848602068006820F040002168EF
:102710000860A06AB0F5005F0DD100BF20680068B6
:1027200020F40050216808602068006840F40050E0
:102730002168086000BF012084F8510000BF00201C
:1027400084F8500000BF0320BFE720688068304055
:10275000B04201D1012000E000200028C4D10020B7
:10276000B3E710B5FEF7ACF810BD000000B591B0AE
:102770001848006840F08050164908601648006804
:1027800040F4404014490860012005900690022062
:102790000B9041050C9118210D914FF4A8710E91E9
:1027A00002210F910721109105A8FEF737FC0D209B
:1027B000009002200190002002904FF4A05003905E
:1027C0004FF48050049005216846FEF779F911B066
:1027D00000BD00004038024000700040144800680E
:1027E00040F47000124908601248006840F001008F
:1027F0001049086000200F49083108600D48006842
:102800000D4908400B4908600C48091D0860081F65
:10281000006820F48020091F0860002005490C3161
:1028200008604FF00060024980390860704700007E
:1028300088ED00E000380240FFFFF6FE1030002473
:1028400010B56FF001001B49096808610020FFF70F
:10285000DFFB1948807C012813D11748B0F90830F4
:10286000B0F90620B0F9041014A000F0BFFC124823
:10287000B0F91030B0F90E20B0F90C1018A000F02B
:10288000B5FC2048007B012813D11E48B0F9083060
:10289000B0F90620B0F904101BA000F0A7FC2348F3
:1028A000B0F90830B0F90620B0F9041020A000F00B
:1028B0009DFC10BD5C000020EC0000204D50553602
:1028C00030303020414343454C20783D25642C2056
:1028D000793D25642C207A3D25640D0A0000000016
:1028E0004D505536303030204759524F2020783DDA
:1028F00025642C20793D25642C207A3D25640D0A21
:102900000D0A0000000100204C534D3330334420A9
:10291000414343454C20783D25642C20793D256476
:102920002C207A3D25640D0A0D0A000010010020BC
:102930004C534D33303344204D414720783D25647E
:102940002C20793D25642C207A3D25640D0A0D0A42
:102950000000000010B51148006840F008000F4961
:1029600008600F480F49086042F20F710D48C160BE
:1029700042F2CF000B49486000210A4801618160A2
:10298000FFF7D6F80748FFF781F90022052132202A
:10299000FDF7ECFF3220FDF7DBFF10BD40380240B1
:1029A000000C00405C000020002202682C4B984282
:1029B0000ED0B0F1804F0BD02A4B984208D02A4B52
:1029C000984205D0294B984202D0294B984201D118
:1029D000012300E000231BB122F070024B681A4370
:1029E0001F4B984220D0B0F1804F1DD01D4B984214
:1029F0001AD01D4B984217D01C4B984214D01C4B38
:102A0000984211D01B4B98420ED01B4B98420BD0D2
:102A10001A4B984208D01A4B984205D0194B98424D
:102A200002D0194B984201D1012300E000231BB1D1
:102A300022F44072CB681A4302608B68C3620B6851
:102A40008362074B984202D0094B984201D101237F
:102A500000E000230BB10B6903630123436170475E
:102A6000000001400004004000080040000C00404D
:102A70000004014000400140004401400048014082
:102A800000180040001C00400020004070B50025E8
:102A900007480068C06800F020053DB104480068A0
:102AA0004068C4B2214603A000F0A0FB70BD000046
:102AB000200000202563000000B585B0254800688F
:102AC00040F01000234908600846006840F01000FC
:102AD000086020481030006840F080401D491031E7
:102AE00008608815009002200190002002900220CA
:102AF00003900820049069461748FDF737FC8020B2
:102B000000900820049069461348FDF72FFC1348F5
:102B1000134908604FF4E13048600021104881609B
:102B2000C160016181610C214161FFF733F90C48FB
:102B30000068C06840F0200009490968C8600022A8
:102B40000E215220FDF712FF5220FDF701FF05B0C4
:102B500000BD000030380240001002400078004004
:102B6000200000202DE9F04104460025CC492068D2
:102B700088421BD0CB492068884217D0CA492068B8
:102B8000884213D0C949206888420FD0C8492068BC
:102B900088420BD0C7492068884207D0C6492068C0
:102BA000884203D0C5492068884200D104E040F241
:102BB0001771C3A000F016FCCF496068884200D2AC
:102BC00004E04FF4E361BEA000F00CFCA06818B173
:102BD000A068B0F5805F00D104E040F21971B8A0A0
:102BE00000F000FCE06818B1E068B0F5005F00D1CB
:102BF00004E040F21A71B2A000F0F4FB206938B191
:102C00002069B0F5806F03D02069B0F5C06F00D1A6
:102C100004E040F21B71AAA000F0E4FB4FF6F37150
:102C20006069084010B9606900B104E040F21C71AD
:102C3000A3A000F0D7FBA06958B1A069B0F5807FD0
:102C400007D0A069B0F5007F03D0A069B0F5407F40
:102C500000D104E040F21D7199A000F0C3FBA0690F
:102C6000A8B18F49206888420BD08E4920688842DD
:102C700007D08D492068884203D08E492068884259
:102C800000D104E040F222718DA000F0ABFB20687F
:102C9000056925F44055E068054320680561206812
:102CA000C56849F20C6085432169A06808436169E1
:102CB0000843E169084305432068C5602068456909
:102CC00025F44075A069054320684561E069B0F5C9
:102CD000004F72D172492068884203D0754920683C
:102CE000884234D1FEF722F900EBC00101EB00105D
:102CF00061684900B0FBF1F06421B0FBF1F6FEF72A
:102D000015F900EBC00101EB001061684900B0FB50
:102D1000F1F7FEF70BF900EBC00101EB0010616861
:102D20004900B0FBF1F06421B0FBF1F000EBC00111
:102D300001EB0010A7EB8000322101EB00106421B1
:102D4000B0FBF1F066F31F1021688860A6E0FEF783
:102D5000D7F800EBC00101EB001061684900B0FB3F
:102D6000F1F06421B0FBF1F6FEF7CAF800EBC00108
:102D700001EB001061684900B0FBF1F7FEF7C0F805
:102D800000EBC00101EB001061684900B0FBF1F0FD
:102D90006421B0FBF1F000EBC00101EB0010A7EBE8
:102DA0008000322101EB00106421B0FBF1F066F3EA
:102DB0001F102168886071E0FFE739492068884268
:102DC00003D03C492068884234D1FEF7AFF800EBCD
:102DD000C00101EB001061688900B0FBF1F06421D3
:102DE000B0FBF1F6FEF7A2F800EBC00101EB00101A
:102DF00061688900B0FBF1F7FEF798F800EBC001BD
:102E000001EB001061688900B0FBF1F06421B0FBB8
:102E1000F1F000EBC00101EB0010A7EB80003221C4
:102E200001EB00106421B0FBF1F066F31F10216884
:102E3000886033E0FEF764F800EBC00101EB00109E
:102E400061688900B0FBF1F06421B0FBF1F6FEF798
:102E500057F800EBC00101EB001061688900B0FB7E
:102E6000F1F7FEF74DF800EBC00101EB00106168CF
:102E70008900B0FBF1F06421B0FBF1F000EBC00180
:102E800001EB0010A7EB8000322101EB0010642160
:102E9000B0FBF1F066F31F1021688860BDE8F08197
:102EA000001001400044004000480040004C004039
:102EB000005000400014014000780040007C0040B9
:102EC0005352435C6C69625C53544D3332463478E0
:102ED000785F48414C5F4472697665725C537263F7
:102EE0005C73746D3332663478785F68616C5F75DB
:102EF0006172742E63000000A137A0002DE9F0413B
:102F000004460E4617461D464FF00008FDF7D2FC5A
:102F100080469FBB2BE0681C48B32DB1FDF7CAFC6F
:102F2000A0EB0800A84222D92068C06820F08000E9
:102F30002168C8602068C06820F020002168C8604F
:102F40002068C06820F480702168C86020684069EB
:102F500020F0010021684861012084F8390000BF99
:102F6000002084F8380000BF0320BDE8F08120680D
:102F700000683040B04202D1012001E003E00020AF
:102F80000028C8D035E02AE0681C40B32DB1FDF719
:102F900091FCA0EB0800A84221D92068C06820F06D
:102FA00080002168C8602068C06820F02000216887
:102FB000C8602068C06820F480702168C8602068FC
:102FC000406920F0010021684861012084F839003F
:102FD00000BF002084F8380000BF0320C5E7206848
:102FE00000683040B04201D1012000E000200028FC
:102FF000CAD10020B9E7000010B50122082103481A
:10300000FDF722FC02A000F0F1F810BD0010024014
:103010005644445F3356335F53454E534F52535FCC
:10302000454E202D2D20D2D1CAB9C4DC0D0A000096
:1030300010B5012291020348FDF706FC02A000F042
:10304000D5F810BD001002405644445F35565F4825
:1030500049504F5745525F4F43202D2D20D2D1CAA2
:10306000B9C4DC0D0A00000010B500224FF48071D5
:103070000348FDF7E9FB03A000F0B8F810BD00001D
:10308000000002405644445F35565F504552495057
:10309000485F454E202D2D20D2D1CAB9C4DC0D0A7F
:1030A0000000000010B50122D1030348FDF7CCFB5E
:1030B00002A000F09BF810BD001002405644445F8F
:1030C00035565F4849504F5745525F4F43202D2D8D
:1030D00020D2D1CAB9C4DC0D0A00000000B585B009
:1030E0002748006820F0010025490860084600686C
:1030F00040F0100008600846006840F010000860CA
:103100000846006840F01000086088150090012013
:103110000190002002900220039069461948FDF7B3
:1031200025F9FFF7A1FF08200090012001900290EF
:103130000220039069461448FDF718F9FFF75CFF79
:103140004FF4806000901120019000200290022036
:10315000039069460C48FDF709F9FFF769FF4FF442
:103160000040009011200190002002900220039066
:1031700069460548FDF7FAF8FFF794FF05B000BD72
:1031800030380240000002400010024000B585B017
:103190001448006840F002001249086008460068C0
:1031A00040F0020008600846006840F00400086033
:1031B0002020009000200190029002200390694698
:1031C0000948FDF7D3F88020009069460648FDF7CE
:1031D000CDF80120009069460348FDF7C7F805B017
:1031E00000BD000030380240000402400FB4054B1F
:1031F00010B503A9044A029800F018F810BC5DF855
:1032000014FB0000093400081C00002002E008C87C
:10321000121F08C1002AFAD170477047002001E050
:1032200001C1121F002AFBD1704700002DE9FF4F9A
:103230008BB09A460F460546002606E025280BD09F
:1032400052460D9990476D1C761C28780028F5D1C0
:103250000FB03046BDE8F08F0024A046012260493F
:1032600000E0044315F8013F203B02FA03F0084256
:10327000F7D128782E2817D115F8010F44F004044F
:103280002A280ED06FF02F022878A0F130010929EA
:103290000AD808EB880102EB410100EB01086D1C24
:1032A000F2E757F8048B6D1C287869283ED006DCBD
:1032B0000028CDD063280BD0642804D136E07328D1
:1032C00010D075284BD052460D999047761C85E05A
:1032D00017F8040B8DF8000000208DF80100E94676
:1032E000012003E057F8049B4FF0FF3061074FF0D7
:1032F000000401D40AE0641C44450DDA8442FADB80
:1033000019F804100029F6D106E0641C8442FCDBA5
:1033100019F804100029F8D1264404E019F8010B2B
:1033200052460D999047641EF8D257E001CF4FF0F6
:103330000A0B002802DA40422D2102E0210504D5C3
:103340002B218DF82410012103E0E10705D0202175
:10335000F7E70DF1200908910CE00021F9E701CF12
:103360004FF00A0BF9E75946FCF73CFF01F1300238
:1033700009F8012D0028F6D1ADEB090000F1200B72
:10338000600701D44FF00108D84502DDA8EB0B001F
:1033900000E000208046002406E009A85246005DB7
:1033A0000D999047641C761C08988442F5DB04E074
:1033B000302052460D999047761CB8F10001A8F1D3
:1033C0000108F5DC05E019F8010B52460D9990470C
:1033D000761CBBF10001ABF1010BF4DC6D1C34E792
:1033E0000928010005E003A0FFF700FFFA20FCF721
:1033F000AFFFF8E7C5E4D6C3BCECB2E9B4EDCEF359
:10340000212121210000000013B50C464FF6FF7367
:10341000012269460248FEF758FD00981CBD0000D5
:1034200020000020FDF754FAFFF7A0F90020FEF776
:10343000C5FDFFF741FBFFF779F8FFF78BFAFFF7C0
:103440007DF8FEF767FFFEF73BFE03E040F2DC503D
:10345000FCF77EFFFAE70010000000000102030401
:103460000102030406070809883400080000002050
:10347000200000000C320008A834000820000020C2
:10348000000500001C32000800100240000000008F
:10349000007A030A0000000000000000010203049B
:0834A000060708090000000006
:04000005080001AD41
:00000001FF
