:020000040800F2
:1000000060050020C1010008C9010008CB010008FB
:10001000CD010008CF010008D10100080000000058
:10002000000000000000000000000000D3010008F4
:10003000D501000800000000D70100086B2D000862
:10004000DB010008DB010008DB010008DB01000820
:10005000DB010008DB010008DB01000819030008D0
:10006000DB010008DB01000849030008DB01000890
:10007000DB010008DB010008DB010008DB010008F0
:10008000DB010008DB010008DB010008DB010008E0
:10009000DB010008DB010008DB010008DB010008D0
:1000A000DB010008DB010008DB010008DB010008C0
:1000B000DB010008DB010008DB010008DB010008B0
:1000C000DB010008DB010008DB010008DB010008A0
:1000D000DB010008DB010008DB010008DB01000890
:1000E000E5020008DB010008DB010008DB01000875
:1000F000DB010008DB010008DB010008DB01000870
:10010000DB010008DB010008492E0008DB010008C4
:10011000DB010008DB010008DB010008DB0100084F
:10012000DB010008DB010008DB010008DB0100083F
:10013000DB010008DB010008DB010008DB0100082F
:10014000DB010008DB010008DB010008DB0100081F
:10015000DB010008DB010008DB010008DB0100080F
:10016000DB010008DB010008DB010008DB010008FF
:10017000DB010008DB010008DB01000800000000D3
:10018000DB010008DB010008C12F0008DB010008CB
:10019000DB010008DB010008DB010008DB010008CF
:1001A0000000000000000000DB010008DFF80CD0B8
:1001B00000F02EF80048004759390008600500207B
:1001C0000648804706480047FEE7FEE7FEE7FEE7F1
:1001D000FEE7FEE7FEE7FEE7FEE7FEE7E52D0008A7
:1001E000AD01000830B50B46014600202022012455
:1001F00009E021FA02F59D4205D303FA02F5491BF5
:1002000004FA02F52844151EA2F10102F1DC30BD0A
:10021000064C074D06E0E06840F0010394E8070053
:1002200098471034AC42F6D3FFF7C4FF943A000865
:10023000B43A000870B520210D4800F0B1FA044628
:1002400080210B4800F0ACFA05460121094800F076
:10025000A7FA064614B908A003F062FA15B90FA070
:1002600003F05EFA16B916A003F05AFA70BD00004A
:1002700000040240000802405644445F4252494391
:100280004B5F56414C4944202D2D20B5E7D4B4D3C3
:10029000C9B5E7B3D8CCE1B9A90D0A005644445F0B
:1002A000534552564F5F56414C4944202D2D20B5A1
:1002B000E7D4B4D3C9B5E7B5F7CCE1B9A90D0A00C5
:1002C0005644445F425249434B5F56414C49442097
:1002D0002D2D20B5E7D4B4D3C9555342CCE1B9A9EB
:1002E0000D0A000010B50948006800F4004058B13C
:1002F000074802F081FB07480088401C0549088038
:100300004FF400400149086010BD0000143C01405A
:10031000F40000200800002010B50848006800F034
:10032000020050B1064802F053FA06480088401C0B
:100330000449088002200149086010BD143C0140B6
:10034000180100200A0000200448006800F0100096
:1003500010B110200149086070470000143C0140B2
:1003600031B5002400F0AEFA044600BF00F0AAFA4E
:10037000001B00998842F9D338BD00002DE9F047F1
:1003800006460C464FF00009C8460025208880B27A
:1003900000B103E0C321E1A003F0BEFA606830B30E
:1003A0006068012823D06068112820D06068022886
:1003B0001DD0606812281AD0E6496068884216D0BD
:1003C000E5496068884212D0E449606888420ED0EE
:1003D000E349606888420AD0E2496068884206D0F2
:1003E000E1496068884202D06068032800D103E0D8
:1003F000C421CAA003F090FAA06828B1A06801281F
:1004000002D0A068022800D103E0C521C3A003F0F8
:1004100083FA00277CE1012000FA07F9206800EA4E
:100420000908C8457ED16068022802D06068122899
:1004300079D1206900287ED0206909287BD02069E5
:10044000002878D02069002875D02069002872D053
:10045000206900286FD0206901286CD0206901280C
:1004600069D02069022866D02069022863D02069FB
:10047000022860D0206903285DD0206904285AD062
:100480002069042857D02069042854D02069052801
:1004900051D0206905284ED0206909284BD0206909
:1004A000062848D02069092845D02069072842D06D
:1004B000206907283FD0206907283CD020690828F8
:1004C00039D02069082836D02069082833D020691F
:1004D000092830D0206909282DD020690A282AD07F
:1004E00020690A2827D020690B2824D020690C28ED
:1004F00021D020690C281ED020690D281BD020692E
:100500000F2818D02069052815D02069052812D099
:10051000206905280FD0206908280CD020690828F8
:1005200009D002E0EAE01FE005E020690C2802D0D3
:100530002069062800D103E0D62178A003F0ECF969
:10054000F90806F1200050F821507807C10E0F205D
:10055000884085437907C90E206988400543F9081A
:1005600006F1200040F821503568790003208840CA
:100570008543207900F00300790088400543356009
:100580006068012808D06068022805D060681128DA
:1005900002D06068122823D1E06840B1E0680128E9
:1005A00005D0E068022802D0E068032800D103E00B
:1005B000E9215AA003F0B0F9B5687900032088401A
:1005C00085437900E06888400543B560756801207F
:1005D000B84085432079C0F30010B84005437560EA
:1005E000F56879000320884085437900A068884039
:1005F0000543F560606800F08050B0F1805F7DD108
:100600005A48006840F48040584908605848B90882
:1006100050F82150B807010F0F20884085435548F6
:10062000864201D100202DE05348864201D10120AD
:1006300028E05248864201D1022023E050488642F9
:1006400001D103201EE04F48864201D1042019E069
:100650004D48864201D1052014E04C48864201D124
:1006600006200FE04A48864201D107200AE04948A7
:10067000864201D1082005E04748864201D1092081
:1006800000E00A20B907090F884005433848B90837
:1006900040F821504148056825EA0805606800F4E3
:1006A0008030B0F5803F01D145EA08053B48056040
:1006B000001D056825EA0805606800F40030B0F503
:1006C000003F01D145EA08053448001D0560001DC2
:1006D000056825EA0805606800F48010B0F5801F01
:1006E00001D145EA08052D4808300560001D056860
:1006F00025EA0805606800F4001000E007E0B0F5A6
:10070000001F01D145EA080524480C3005607F1C14
:10071000102FFFF480AEBDE8F08700005352435C19
:100720006C69625C53544D3332463478785F48418B
:100730004C5F4472697665725C5372635C73746D6E
:100740003332663478785F68616C5F6770696F2EEA
:1007500063000000000011100000211000003110A3
:100760000000121000002210000032104438024035
:100770000838014000000240000402400008024026
:10078000000C024000100240001402400018024019
:10079000001C02400020024000240240003C0140B6
:1007A00070B506460C46A0B200B104E040F28511D7
:1007B00005A003F0B1F83069204008B1012500E040
:1007C0000025284670BD00005352435C6C69625C92
:1007D00053544D3332463478785F48414C5F44720D
:1007E000697665725C5372635C73746D3332663420
:1007F00078785F68616C5F6770696F2E63000000D6
:1008000070B504460D46A8B200B104E040F2BD1137
:1008100003A003F081F860696840606170BD00006A
:100820005352435C6C69625C53544D3332463478A6
:10083000785F48414C5F4472697665725C537263BD
:100840005C73746D3332663478785F68616C5F67AF
:1008500070696F2E6300000070B506460C461546A1
:10086000A0B200B104E04FF4D37108A003F054F833
:100870000DB1012D00D104E040F2A71103A003F057
:100880004BF80DB1348300E0748370BD5352435C68
:100890006C69625C53544D3332463478785F48411A
:1008A0004C5F4472697665725C5372635C73746DFD
:1008B0003332663478785F68616C5F6770696F2E79
:1008C0006300000001480068704700000C00002031
:1008D00070B50446002600250CB9012070BD77498B
:1008E0002068884207D076492068884203D075493D
:1008F0002068884200D104E040F2211172A003F088
:100900000BF8606820B17E496068884200D804E036
:100910004FF491716CA002F0FFFFA06818B1A068BD
:10092000B0F5804F00D104E040F2231166A002F040
:10093000F3FFE0686FF3090000B904E04FF492712F
:1009400061A002F0E9FF2069B0F5804F03D0206973
:10095000B0F5404F00D104E040F225115AA002F05A
:10096000DBFF606910B16069012800D104E04FF439
:10097000937155A002F0D0FFA06920F0FE0000B9ED
:1009800004E040F2271150A002F0C6FFE06910B168
:10099000E069402800D104E04FF494714AA002F0CD
:1009A000BBFF206A10B1206A802800D104E040F229
:1009B000291145A002F0B0FF94F8350010B9204687
:1009C00000F030F9022084F835002068006820F03B
:1009D00001002168086000F047FC05464948B5FB66
:1009E000F0F62068466048496068884201D8701C6B
:1009F00007E04FF4967070434FF47A71B0FBF1F05A
:100A0000401C216808624049606888420ED86068CE
:100A10004000B5FBF0F0C0F30B00042801D2042025
:100A20002DE060684000B5FBF0F028E0A06828B930
:100A3000606800EB4000B5FBF0F008E0606800EB98
:100A4000C00101EB0010B5FBF0F040F48040C0F3B2
:100A50000B0008B9012012E0A06828B9606800EB1B
:100A60004000B5FBF0F008E0606800EBC00101EB6E
:100A70000010B5FBF0F040F4804040F400402168E5
:100A8000C861D4E90701084321680860D4E903106C
:100A9000084321688860D4E9050108432168C860DB
:100AA0002068006840F0010021680860002084F898
:100AB0003600012084F8350000200FE70054004084
:100AC00000580040005C00405352435C6C69625C1B
:100AD00053544D3332463478785F48414C5F44720A
:100AE000697665725C5372635C73746D333266341D
:100AF00078785F68616C5F6932632E630000000084
:100B0000801A060040420F00A08601002DE9F04146
:100B10000446884615461E46069F94F8350001286F
:100B20007AD105B116B90120BDE8F081206880694D
:100B3000C0F3400008B10220F6E700BF94F834008B
:100B4000012801D10220EFE7012084F8340000BF22
:100B5000122084F83500002084F836003A464146D9
:100B6000204601F02BFC88B194F83600042806D109
:100B700000BF002084F8340000BF0120D4E700BF8C
:100B8000002084F8340000BF0320CDE700BF2068B8
:100B900040692068806900BF1AE03B4600221F4977
:100BA000204601F053FC08B10320BDE715F8010B06
:100BB00021680861701E86B220684069C0F3800019
:100BC00030B12EB115F8010B21680861701E86B294
:100BD000002EE2DC3B4600221049204601F036FCA4
:100BE00008B10320A0E72068006840F40070216885
:100BF00008603B4601220A49204601F027FC10B15B
:100C0000032091E708E0012084F8350000BF0020B0
:100C100084F8340000BF87E7022085E780000100E8
:100C2000020010007047000002480068401C0149A3
:100C3000086070470C00002010B50D48006840F4B3
:100C400000700B4908600846006840F48060086046
:100C50000846006840F480700860032000F0A2F8A5
:100C60000F2000F007F800F017F8002010BD00007A
:100C7000003C024070B5044600F0DAFA4FF47A7195
:100C8000B0FBF1F5284601F0EDF800222146501E98
:100C900000F020F8002070BD7047000000BF00F099
:100CA0001F0201219140034A430942F8231000BF6B
:100CB0007047000080E100E000BF00F01F0201214A
:100CC00091404209920002F1E022C2F8001100BFF7
:100CD000704700002DE9F05F80460C46154600275E
:100CE000102D00D203E0BC2120A002F015FE102C34
:100CF00000D203E0BD211DA002F00EFE01F0E4FED3
:100D00000746394622462B4601F00700C0F1070A84
:100D1000BAF1040F02D94FF0040A01E0C0F1070A4A
:100D2000D14600F1040ABAF1070F02D24FF0000ACF
:100D300001E0A0F1030AD4464FF0010A0AFA09FAC9
:100D4000AAF1010A0AEA020A0AFA0CFA4FF0010BA8
:100D50000BFA0CFBABF1010B0BEA030B4AEA0B0697
:100D60003146404601F0B8FEBDE8F09F5352435C67
:100D70006C69625C53544D3332463478785F484135
:100D80004C5F4472697665725C5372635C73746D18
:100D90003332663478785F68616C5F636F72746554
:100DA000782E630010B50446072C07D0062C05D01A
:100DB000052C03D0042C01D0032C00D103E0A42186
:100DC00009A002F0A9FD00BF04F00701144A106851
:100DD0004FF6FF021040134A024342EA0120104A34
:100DE000106000BF10BD00005352435C6C69625C30
:100DF00053544D3332463478785F48414C5F4472E7
:100E0000697665725C5372635C73746D33326634F9
:100E100078785F68616C5F636F727465782E6300C9
:100E20000CED00E00000FA0570B504460D46002602
:100E30002068012803D320680F2800D804E040F27E
:100E40005521EBA002F068FDEDB1012D1BD0022D64
:100E500019D0032D17D0042D15D0052D13D0062D34
:100E600011D0072D0FD0082D0DD0092D0BD00A2D34
:100E700009D00B2D07D00C2D05D00D2D03D00E2D34
:100E800001D00F2D00D104E040F25621D8A002F08D
:100E900043FDE548006800F00F00A84276D2E24921
:100EA0000D700846006800F00F00A84201D0012034
:100EB00070BD207800F00200022827D1A068B8B1E8
:100EC000A068802814D0A068902811D0A068A0281D
:100ED0000ED0A068B0280BD0A068C02808D0A068A9
:100EE000D02805D0A068E02802D0A068F02800D162
:100EF00004E04FF41B71BEA002F00EFDCB48006869
:100F000020F0F000A1680843C8490860207800F08C
:100F1000010000284AD0606828B16068012802D02A
:100F20006068022800D104E040F27321B0A002F012
:100F3000F3FC6068012807D1BC4808380068C0F39A
:100F40004040A0B90120B3E76068022807D1B74844
:100F500008380068C0F3406048B90120A8E7B348EA
:100F600008380068C0F3400008B90120A0E7AF4886
:100F7000006820F0030061680843AC490860FFF78F
:100F8000A1FC06466068012811D109E034E0FFF7B2
:100F900099FC801B41F28831884201D9032087E700
:100FA000A248006800F00C000428F0D1CFE060688F
:100FB000022810D108E0FFF785FC801B41F2883140
:100FC000884201D9032073E79848006800F00C00BC
:100FD0000828F0D1BBE008E0FFF774FC801B41F269
:100FE0008831884201D9032062E79048006800F008
:100FF0000C000028F0D1AAE0207800F002000228BE
:1010000027D1A068B8B1A068802814D0A068902823
:1010100011D0A068A0280ED0A068B0280BD0A0687E
:10102000C02808D0A068D02805D0A068E02802D049
:10103000A068F02800D104E040F2BB216CA002F0CF
:101040006BFC7A48006820F0F000A16808437749FB
:101050000860207800F0010000286ED0606828B198
:101060006068012802D06068022800D104E040F2E4
:10107000C2215FA002F050FC6068012807D16B48D4
:1010800008380068C0F34040A0B9012010E760684C
:10109000022807D1654808380068C0F3406048B9A5
:1010A000012005E7614808380068C0F3400008B92E
:1010B0000120FDE65D48006820F0030061680843F8
:1010C0005A490860FFF7FEFB06466068012810D108
:1010D00008E0FFF7F7FB801B41F28831884201D915
:1010E0000320E5E65148006800F00C000428F0D128
:1010F00023E06068022810D108E0FFF7E3FB801BC3
:1011000041F28831884201D90320D1E6474800687E
:1011100000F00C000828F0D10FE008E0FFF7D2FB48
:10112000801B41F28831884201D90320C0E63F4844
:10113000006800F00C000028F0D13B490D70084613
:10114000006800F00F00A84201D00120B0E620782E
:1011500000F0040004281FD1E06878B1E068B0F521
:10116000805F0BD0E068B0F5A05F07D0E068B0F515
:10117000C05F03D0E068B0F5E05F00D104E040F26A
:1011800012311BA002F0C8FB2848006820F4E05090
:10119000E168084325490860207800F00800082825
:1011A00020D1206978B12069B0F5805F0BD020692B
:1011B000B0F5A05F07D02069B0F5C05F03D020690B
:1011C000B0F5E05F00D104E040F2193108A002F070
:1011D000A3FB1648006820F46040216940EAC10082
:1011E000124908600F20FFF745FD002060E600006F
:1011F0005352435C6C69625C53544D3332463478CD
:10120000785F48414C5F4472697665725C537263E3
:101210005C73746D3332663478785F68616C5F72CA
:1012200063632E6300000000003C02400838024067
:1012300000B500F045F80949096801F0F001F02215
:1012400092FAA2F2B2FA82F2D140054A515CC84049
:10125000044908600846006800BD000008380240E4
:10126000823A00081000002000B5FFF7E1FF0749AF
:10127000096801F4E0514FF4E05292FAA2F2B2FA96
:1012800082F2D140024A515CC84000BD0838024099
:10129000823A000800B5FFF7CBFF0749096801F45F
:1012A00060414FF4604292FAA2F2B2FA82F2D14067
:1012B000024A515CC84000BD08380240823A00082A
:1012C00070B500210022002300202B4C246804F07C
:1012D0000C0424B1042C04D0082C48D103E0274886
:1012E00047E0274845E0244C241F246804F03F01D0
:1012F000214C241F246804F480044FF4800595FADF
:10130000A5F5B5FA85F5EC4084B11D4CB4FBF1F5BB
:10131000194C241F246847F6C076344096FAA6F686
:10132000B6FA86F6F44005FB04F20FE0134CB4FB6A
:10133000F1F5114C241F246847F6C076344096FA24
:10134000A6F6B6FA86F6F44005FB04F20A4C241F12
:10135000246804F440344FF4403595FAA5F5B5FA05
:1013600085F5EC40641C6300B2FBF3F001E0034838
:1013700000BF00BF70BD0000083802400024F40028
:1013800000366E0170B50446002520680F2800D88D
:1013900003E0F721F6A002F0BFFA207800F0010088
:1013A000002874D0606828B16068012802D06068A5
:1013B000052800D103E0FC21EDA002F0ADFAFA48C7
:1013C000006800F00C0004280DD0F748006800F019
:1013D0000C00082813D1F448001F006800F48000B6
:1013E000B0F5800F0BD1F04808380068C0F34040DA
:1013F00000284CD06068012849D0012070BD002031
:10140000E949891F0870FFF75DFA054608E0FFF714
:1014100059FA401B41F28831884201D90320EDE797
:10142000E14808380068C0F340400028EFD1207937
:10143000DD49891F08706068012814D1FFF742FA5E
:10144000054608E0FFF73EFA401B41F2883188422A
:1014500001D90320D2E7D44808380068C0F34040DF
:101460000028EFD013E0FFF72DFA054608E0FFF75C
:1014700029FA401B41F28831884201D90320BDE797
:10148000C94808380068C0F340400028EFD12078F0
:1014900000F0020002287DD1E06810B1E068012868
:1014A00000D104E04FF49E71B1A002F035FA20693A
:1014B0001F2800D804E040F23D11ADA002F02CFA44
:1014C000B948006800F00C0058B1B748006800F057
:1014D0000C00082821D1B448001F006800F48000E7
:1014E000D8B9B14808380068C0F3400020B1E068BE
:1014F000012801D0012081E7AB480838006820F0BE
:10150000F800F82292FAA2F2B2FA82F2216991402E
:101510000843A549083908603CE0E06828B3012089
:10152000A2490860FFF7CEF9054606E0FFF7CAF9C1
:10153000401B642801D9032060E79B4808380068F5
:10154000C0F340000028F1D097480838006820F028
:10155000F800F82292FAA2F2B2FA82F221699140DE
:10156000084391490839086014E000208F49086059
:10157000FFF7A8F9054606E0FFF7A4F9401B642829
:1015800001D903203AE7884808380068C0F34000D2
:101590000028F1D1207800F00800082837D16069D0
:1015A00010B16069012800D104E04FF4BE7170A051
:1015B00002F0B2F96069A8B101207D490860FFF727
:1015C00081F9054606E0FFF77DF9401B642801D943
:1015D000032013E774486C300068C0F34000002813
:1015E000F1D014E0002072490860FFF76BF905465E
:1015F00006E0FFF767F9401B642801D90320FDE6E8
:1016000069486C300068C0F340000028F1D12078B0
:1016100000F00400042874D1A06828B1A068012853
:1016200002D0A068052800D104E04FF4D37150A087
:1016300002F072F95C483830006840F080505A4936
:10164000383108605B48006840F480705949086090
:10165000FFF738F9054606E0FFF734F9401B642828
:1016600001D90320CAE65348006800F480700028BE
:10167000F2D000204C4968310870FFF723F9054685
:1016800008E0FFF71FF9401B41F28831884201D979
:101690000320B3E6444868300068C0F340000028E7
:1016A000EFD1207A404968310870A068012814D130
:1016B000FFF708F9054608E0FFF704F9401B41F27F
:1016C0008831884201D9032098E63748683000689D
:1016D000C0F340000028EFD013E0FFF7F3F8054611
:1016E00008E0FFF7EFF8401B41F28831884201D94A
:1016F000032083E62C4868300068C0F340000028CF
:10170000EFD1A06928B1A069012802D0A069022800
:1017100000D104E04FF4F57115A002F0FDF8A069C6
:10172000002876D02048006800F00C00082871D00E
:10173000A06902286FD1E06918B1E069B0F5800FA7
:1017400000D104E040F2F31109A002F0E5F8206AAC
:101750003F2800D804E04FF4FA7105A002F0DCF84D
:10176000606AC02828D3606AB0F5D87F24D829E001
:101770005352435C6C69625C53544D333246347847
:10178000785F48414C5F4472697665725C5372635E
:101790005C73746D3332663478785F68616C5F7245
:1017A00063632E63000000000838024000004742D7
:1017B000800E47420070004040F2F511AFF2500039
:1017C00002F0AAF8A06A022808D0A06A042805D06E
:1017D000A06A062802D0A06A082800D105E04FF4CC
:1017E000FB71AFF2740002F097F8E06A042803D3AB
:1017F000E06A0F2800D805E040F2F711AFF2900040
:1018000002F08AF8002035490866FFF75BF80546C4
:1018100009E060E05DE047E0FFF754F8401B642812
:1018200001D90320EAE52E480068C0F34060002893
:10183000F2D1206A40F0005047F6C07292FAA2F24C
:10184000B2FA82F2616A914008430122A16AC2EBB6
:1018500051014FF4403292FAA2F2B2FA82F2914070
:101860000843E16908434FF0706292FAA2F2B2FABB
:1018700082F2E16A914008431949091D086001207C
:1018800016490866FFF71EF8054606E0FFF71AF846
:10189000401B642801D90320B0E511480068C0F35B
:1018A00040600028F2D016E000200C490866FFF7DF
:1018B00009F8054606E0FFF705F8401B642801D942
:1018C00003209BE506480068C0F340600028F2D181
:1018D00001E0012092E5002090E500000000474271
:1018E0000038024010B504460CB9012010BD6068F4
:1018F00018B16068B0F5827F00D103E0B22161A029
:1019000002F00AF8A06838B1A068B0F5806F03D083
:10191000A068B0F5004F00D103E0B32159A001F059
:10192000FBFFE068B0F5006F01D0E06800B903E0AC
:10193000B42154A001F0F0FF206910B12069022801
:1019400000D103E0B5214FA001F0E6FF606910B1BE
:101950006069012800D103E0B6214AA001F0DCFF54
:10196000A069B0F5007F05D0A06918B1A069B0F5F5
:10197000802F00D103E0B72142A001F0CDFFE06944
:10198000A0B1E069082811D0E06910280ED0E06904
:1019900018280BD0E069202808D0E069282805D055
:1019A000E069302802D0E069382800D103E0B8218E
:1019B00034A001F0B1FF206A10B1206A802800D164
:1019C00003E0B9212FA001F0A7FF606A10B1606A9F
:1019D000102800D103E0BA212AA001F09DFFA06ADF
:1019E00018B1A06AB0F5005F00D103E0BB2125A0CB
:1019F00001F092FFE06A20B1E06AB0F5803F00D2CA
:101A000003E0BC211FA001F087FF94F8510010B93A
:101A1000204600F053F8022084F851002068006846
:101A200020F0400021680860D4E901010843E16822
:101A300008432169084361690843218B01F400715F
:101A40000843E1690843216A0843A16A0843216801
:101A500008600421A06901EA1040616A0843216816
:101A600048602168E06A08612068C06920F400606D
:101A70002168C861002084F85200012084F85100D8
:101A8000002033E75352435C6C69625C53544D331E
:101A900032463478785F48414C5F447269766572AB
:101AA0005C5372635C73746D3332663478785F684C
:101AB000616C5F7370692E63000000007047000066
:101AC0002DE9F84F04460E4617461D46DDF82890CE
:101AD0004FF00008C24694F85180B8F1010F02D0CF
:101AE000B8F1220F74D10EB107B115B90120BDE8CC
:101AF000F88FA06800B904E040F2A221CBA001F069
:101B00000BFF00BF94F85000012801D10220EEE73E
:101B1000012084F8500000BF94F85100012802D140
:101B2000322084F85100002084F85200A763A58772
:101B3000E5872663A586E586A064E064A06AB0F523
:101B4000005F0DD100BF2068006820F400502168BC
:101B500008602068006840F400502168086000BFF9
:101B60002068006800F04000402805D02068006828
:101B700040F0400021680860E068B0F5006F75D162
:101B8000606830B16068B0F5827F0CD1E08E0128CA
:101B900009D1206B00882168C860206B801C2063FD
:101BA000E08E401EE086E08EF0B9A06AB0F5005FDE
:101BB00005D12068006840F48050216808604B46D9
:101BC00000220121204601F046F810B103208EE7E3
:101BD0002AE12068C068A16B0880A06B801CA0630C
:101BE000E08F401EE087C6E031E04B460022022134
:101BF000204601F030F808B1032078E7206B008818
:101C00002168C860206B801C2063E08E401EE08647
:101C1000E08E48B9A06AB0F5005F05D12068006881
:101C200040F48050216808604B4600220121204684
:101C300001F011F808B1032059E72068C068A16BD2
:101C40000880A06B801CA063E08F401EE087E08EC0
:101C50000028CADC60680028C5D14B46002201215B
:101C6000204600F0F8FF10B1032040E70AE02068AA
:101C7000C068A16B0880A06B801CA063E08F401E31
:101C8000E08778E0606830B16068B0F5827F0BD1A2
:101C9000E08E012808D1216B481C20630878216858
:101CA000C860E08E401EE086E08ED0B9A06AB0F534
:101CB000005F05D12068006840F48050216808600A
:101CC0004B4600220121204600F0C5FF08B1032049
:101CD0000DE72068C068A16B0870E08F401EE087A8
:101CE00049E030E04B4600220221204600F0B3FFDD
:101CF00008B10320FBE6216B481C206308782168AB
:101D0000C860E08E401EE086E08E48B9A06AB0F55B
:101D1000005F05D12068006840F4805021680860A9
:101D20004B4600220121204600F095FF08B1032018
:101D3000DDE62068C068C1B2A26B501CA0631170C0
:101D4000E08F401EE087E08E0028CBDC606890B911
:101D50004B4600220121204600F07DFF08B1032000
:101D6000C5E62068C068C1B2A26B501CA0631170A8
:101D7000E08F401EE087A06AB0F5005F12D14B46AD
:101D800000220121204600F066FF38B194F852008D
:101D900040F0020084F852000320A8E62068C068E2
:101DA00080B200904B4601228021204600F053FF74
:101DB00038B194F8520040F0200084F8520003201B
:101DC00095E6012084F8510020688068C0F3001A6D
:101DD000A06AB0F5005F21D1BAF1000F1ED094F8CF
:101DE000520040F0020084F85200A06AB0F5005F93
:101DF0000DD100BF2068006820F400502168086001
:101E00002068006840F400502168086000BF00BFEF
:101E1000002084F8500000BF012068E600BF0020C9
:101E200084F8500000BF62E6022060E65352435C33
:101E30006C69625C53544D3332463478785F484164
:101E40004C5F4472697665725C5372635C73746D47
:101E50003332663478785F68616C5F7370692E63C3
:101E60000000000070B504462546681EB0F1807F72
:101E700001D301200FE0681E4FF0E02148610F21DF
:101E80004FF0FF3000F028FE00204FF0E021886185
:101E900007200861002070BD10B504460CB9012070
:101EA00010BD38492068884233D02068B0F1804F97
:101EB0002FD03549206888422BD034492068884289
:101EC00027D033492068884223D03249206888428D
:101ED0001FD03149206888421BD030492068884291
:101EE00017D02F492068884213D02E492068884295
:101EF0000FD02D49206888420BD02C492068884299
:101F000007D02B492068884203D02A49206888429C
:101F100000D103E0D12128A001F0FEFCA06858B157
:101F2000A068102808D0A068202805D0A068402804
:101F300002D0A068602800D103E0D2211EA001F0E9
:101F4000EBFC206938B12069B0F5807F03D02069AF
:101F5000B0F5007F00D103E0D32117A001F0DCFC35
:101F600094F8390010B9204600F042F8022084F8B5
:101F70003900211D206800F0B1FF012084F83900EC
:101F800000208DE7000001400004004000080040F0
:101F9000000C00400010004000140040000401400C
:101FA000004001400044014000480140001800404A
:101FB000001C0040002000405352435C6C69625C8E
:101FC00053544D3332463478785F48414C5F447205
:101FD000697665725C5372635C73746D3332663418
:101FE00078785F68616C5F74696D2E630000000033
:101FF0007047000010B5044625492068884233D058
:102000002068B0F1804F2FD02249206888422BD021
:1020100021492068884227D020492068884223D05F
:102020001F49206888421FD01E49206888421BD063
:102030001D492068884217D01C492068884213D067
:102040001B49206888420FD01A49206888420BD06B
:1020500019492068884207D018492068884203D06F
:1020600017492068884200D104E04FF4AB7115A0F5
:1020700001F052FC2068C06840F001002168C8608F
:102080002068006840F0010021680860002010BD51
:10209000000001400004004000080040000C004027
:1020A00000100040001400400004014000400140C6
:1020B000004401400048014000180040001C00405E
:1020C000002000405352435C6C69625C53544D33B2
:1020D00032463478785F48414C5F44726976657265
:1020E0005C5372635C73746D3332663478785F6806
:1020F000616C5F74696D2E630000000010B50446CA
:102100000CB9012010BDA069A8B1334920688842EC
:102110000BD032492068884207D031492068884274
:1021200003D030492068884200D129E0F2212EA056
:1021300001F0F2FB24E02849206888421BD027499F
:102140002068884217D026492068884213D0344935
:10215000206888420FD03349206888420BD021493B
:102160002068884207D030492068884203D02F4930
:102170002068884200D103E0F7211BA001F0CCFBCE
:1021800094F8390010B9204600F052F8022084F883
:1021900039002068C06820F400502168C8602046DB
:1021A00000F07AFF2068006920F4904021680861FF
:1021B0002068406920F02A00216848612068C068D2
:1021C00040F400502168C860002084F83A000120E3
:1021D00084F83900002095E70010014000440040D9
:1021E00000480040001401405352435C6C69625C3B
:1021F00053544D3332463478785F48414C5F4472D3
:10220000697665725C5372635C73746D33326634E5
:1022100078785F68616C5F756172742E630000008E
:10222000004C00400050004000780040007C00401E
:1022300070472DE9F04704460D46164699464FF083
:10224000000894F83980B8F1010F02D0B8F1220FDC
:1022500066D105B116B90120BDE8F08700BF94F83A
:102260003800012801D10220F6E7012084F8380067
:1022700000BF002084F83A0094F83900222803D1E6
:10228000322084F8390002E0122084F83900A68454
:10229000E68428E0E08C401EE084A068B0F5805F12
:1022A00014D14B4600228021204601F0C1F808B12C
:1022B0000320D1E72F463888C0F308002168486022
:1022C000206908B9AD1C0EE06D1C0CE04B460022E5
:1022D0008021204601F0ACF808B10320BCE715F8D6
:1022E000010B21684860E08C0028D3DC4B460022BB
:1022F0004021204601F09CF808B10320ACE794F897
:102300003900322803D1222084F8390002E001206C
:1023100084F8390000BF002084F8380000BF9BE734
:10232000022099E700B585B01F48006840F0020020
:102330001D4908600846006840F0020008601A481D
:102340001030006840F4800017491031086008150B
:10235000009012200190012002900220039004209E
:10236000049069461148FEF709F84FF400600090A8
:102370000420049069460D48FEF700F80C480D490A
:10238000086001140B4801610B480A4948600021AC
:10239000084841618160C1610162AA21C160FEF704
:1023A00097FA05B000BD000030380240000402403A
:1023B0000058004028010020A086010070B50446A6
:1023C0000D4616462068006840F480702168086059
:1023D000334600224FF00111204600F037F808B1D3
:1023E000032070BD2069B0F5804F04D105F0FE00D8
:1023F0002168086117E005F44070F02141EAE0101F
:102400002168086132461049204600F08EF838B144
:1024100094F83600042801D10120E2E70320E0E728
:10242000E8B22168086132460749891F204600F05A
:102430007CF838B194F83600042801D10120D0E7A7
:102440000320CEE70020CCE7080001002DE9F04191
:1024500005460C4617461E464FF00008FEF732FAB6
:10246000804687BB13E0701C88B12EB1FEF72AFAB4
:10247000A0EB0800B0420AD9012085F8350000BF62
:10248000002085F8340000BF0320BDE8F081C4F3CC
:10249000074001280AD128684069A1B20840A1B2CA
:1024A000884201D101200BE0002009E02868806902
:1024B000A1B20840A1B2884201D1012000E0002071
:1024C0000028D0D02FE0FFE712E0701C80B12EB1C1
:1024D000FEF7F8F9A0EB0800B04209D9012085F811
:1024E000350000BF002085F8340000BF0320CCE792
:1024F000C4F3074001280AD128684069A1B2084006
:10250000A1B2884201D101200BE0002009E0286837
:102510008069A1B20840A1B2884201D1012000E047
:1025200000200028D1D10020AFE72DE9F04104467A
:102530000D4616460027FEF7C5F907462EE020682F
:102540004069C0F38020B8B12068006840F4007092
:10255000216808606FF4806021684861042084F875
:102560003600012084F8350000BF002084F83400D4
:1025700000BF0120BDE8F081701C78B126B1FEF7E4
:10258000A1F9C01BB04209D9012084F8350000BF71
:10259000002084F8340000BF0320EBE7C5F30740B8
:1025A00001280AD120684069A9B20840A9B288422E
:1025B00001D101200BE0002009E020688069A9B268
:1025C0000840A9B2884201D1012000E00020002883
:1025D000B5D00020CEE7000010B586B00446104804
:1025E000006840F010000E4908600E4830F81400F2
:1025F0000190012002900390022004900A4951F8B2
:10260000240001A9FDF7BAFE064A32F81410064A62
:1026100052F824000022FEF71FF906B010BD00009A
:1026200030380240803A00080000002010B504460F
:10263000044A32F81410044A52F82400FEF7E0F875
:1026400010BD0000803A00080000002010B50122F3
:10265000D1030248FEF700F910BD00000008024057
:1026600010B500224FF400410148FEF7F5F810BD07
:102670000008024000B585B04B48006840F00400F7
:10268000494908604FF400400090012001900290F9
:102690000320039069464548FDF770FEFFF7D6FF1B
:1026A0004148006840F002003F4908601020009057
:1026B0003F480190012002900320039069463D4865
:1026C000FDF75CFE3848006840F0020036490860BB
:1026D00002200090364801900120029003200390D0
:1026E00069463448FDF74AFE002204210A20FEF71D
:1026F000F1FA0A20FEF7E0FA002204210720FEF793
:10270000E9FA0720FEF7D8FA00F0E4F880211F204C
:1027100000F0A2F80A20FDF723FE00211F2000F0A0
:102720009BF80120FDF71CFE9F21202000F094F86B
:102730000120FDF715FED821212000F08DF80120A1
:10274000FDF70EFEF421242000F086F80120FDF7AD
:1027500007FE0021252000F07FF80120FDF700FE94
:102760000021262000F078F80120FDF7F9FD08216E
:10277000122000F071F80120FDF7F2FD0421222063
:1027800000F06AF80120FDF7EBFD0421232000F0A2
:1027900063F80120FDF7E4FD00F0A1F806A000F0C9
:1027A000BFFF05B000BD0000303802400008024005
:1027B00000001110000402404C534D33303344B339
:1027C000F5CABCBBAFCDEAB3C9210D0A00000000B9
:1027D0001CB504460020009001900622082168469E
:1027E00000F048F8FEF76EF820609DF800009DF8B4
:1027F000011040EA012000B2A0809DF8020040EAEA
:10280000002000B2E0809DF804009DF8031040EA2B
:10281000012000B2208102220521684600F02AF83A
:102820009DF800009DF8011040EA012000B260818F
:10283000012020731CBD000001B582B04FF4A04000
:10284000012301AA02A900900248FFF739F99DF877
:1028500004000EBDA000002070B505460C46FFF731
:10286000FFFE2846FFF7E8FF2046FFF7E5FFFFF7EA
:10287000EDFE70BD2DE9F04105460E461746FFF707
:10288000EFFE46F0C0010E460846FFF7D5FF0024D4
:1028900005E0FF20FFF7D0FF2855601CC4B2BC4202
:1028A000F7DBFFF7D3FEBDE8F081000010B5012291
:1028B00004210248FDF7D0FF10BD000000080240CF
:1028C00010B5002204210248FDF7C6FF10BD00002C
:1028D0000008024010B52820FEF7E0F910BD10B541
:1028E0002820FEF7E9F910BD00B585B0384800682A
:1028F00040F0040036490860042000900120019057
:1029000002900320039069463248FDF737FDFFF738
:10291000CDFF2F48006840F008002D4908604FF4B3
:10292000004000902C480190012002900320039069
:1029300069462A48FDF722FD002204212820FEF7DF
:10294000C9F9FFF7CCFF80216B2000F0AFF80A2017
:10295000FDF706FD03216B2000F0A8F80120FDF72C
:10296000FFFC10216A2000F0A1F80120FDF7F8FC1F
:102970000021192000F09AF80120FDF7F1FC032155
:102980001A2000F093F80120FDF7EAFC18211B2023
:1029900000F08CF80120FDF7E3FC10211C2000F072
:1029A00085F80120FDF7DCFC0121382000F07EF8DD
:1029B0000120FDF7D5FC3021372000F077F8012009
:1029C000FDF7CEFC06A000F0ABFE05B000BD000098
:1029D000303802400008024000001110000C024094
:1029E0004D505536303030B3F5CABCBBAFCDEAB32D
:1029F000C9210D0A000000001FB504460020009008
:102A00000190029003900E223B21684600F008F9E5
:102A1000FDF758FF20609DF801009DF8001040EA86
:102A2000012000B2A0809DF803009DF8021040EA4A
:102A3000012000B2E0809DF805009DF8041040EAF6
:102A4000012000B220819DF807009DF8061040EAA1
:102A5000012000B260819DF809009DF8081040EA4D
:102A6000012000B2A0819DF80B009DF80A1040EAF9
:102A7000012000B2E0819DF80D009DF80C1040EAA5
:102A8000012000B220820120A0741FBD01B582B0D8
:102A90004FF4A040012301AA02A900900248FFF7C9
:102AA0000FF89DF804000EBDA000002070B505468B
:102AB0000C46FFF705FF2846FFF7E8FF2046FFF723
:102AC000E5FFFFF7F3FE70BD02480068C0F3022087
:102AD000704700000CED00E010B5002807DA0A0787
:102AE000140E054A00F00F031B1FD45403E00A071D
:102AF000130E024A135410BD18ED00E000E400E08C
:102B000010B500F0DDFDFDF795FB00F081FD10BD77
:102B10000EB501208DF804008DF8050000208DF819
:102B200006008DF8070003208DF8080042F21070AF
:102B3000052301AAAA2100900148FDF7E7FF0EBD79
:102B40002801002000B585B03148006840F0010040
:102B50002F4908602E481430006840F480502C49FA
:102B60001431086020200090022001900020029083
:102B7000032003900520049069462648FDF7FEFBDC
:102B8000402000900520049069462248FDF7F6FB9E
:102B9000802000900520049069461E48FDF7EEFB5A
:102BA000012220211B48FDF757FE01224021194830
:102BB000FDF752FE012280211648FDF74DFE164812
:102BC000164908600021154881604FF4827013494E
:102BD000486000211148C160022101610121416169
:102BE000490281613021C1610021016281620721B6
:102BF000C16200214162FEF775FE08480068006866
:102C000040F0400005490968086005B000BD0000BB
:102C1000303802400000024000300140A000002097
:102C20002DE9F04105460E461746FFF749FE46F0EE
:102C300080010E460846FFF729FF002405E0FF202B
:102C4000FFF724FF2855601CC4B2BC42F7DBFFF736
:102C50002DFEBDE8F0812DE9F04104460E461746F1
:102C60001D464FF00008FDF72DFE8046002F3ED197
:102C700032E0681C78B32DB1FDF724FEA0EB08000C
:102C8000A84229D92068406820F0E0002168486007
:102C90002068006820F0400021680860A06AB0F554
:102CA000005F0DD100BF2068006820F4005021684B
:102CB00008602068006840F400502168086000BF88
:102CC000012084F8510000BF002084F8500000BFAC
:102CD0000320BDE8F081FFE7206880683040B04203
:102CE00001D1012000E000200028C2D03BE030E00C
:102CF000681C70B32DB1FDF7E5FDA0EB0800A842FC
:102D000027D92068406820F0E000216848602068EA
:102D1000006820F0400021680860A06AB0F5005FFC
:102D20000DD100BF2068006820F4005021680860C1
:102D30002068006840F400502168086000BF01204E
:102D400084F8510000BF002084F8500000BF032029
:102D5000BFE7206880683040B04201D1012000E028
:102D600000200028C4D10020B3E710B5FDF75CFFB8
:102D700010BD000000B591B01848006840F08050C8
:102D8000164908601648006840F44040144908603D
:102D900001200590069002200B9041050C9118210E
:102DA0000D914FF4A8710E9102210F9107211091FE
:102DB00005A8FEF7E7FA0D20009002200190002000
:102DC00002904FF4A05003904FF4805004900521DE
:102DD0006846FEF729F811B000BD000040380240F7
:102DE000007000401448006840F470001249086008
:102DF0001248006840F001001049086000200F49A7
:102E0000083108600D4800680D4908400B4908600A
:102E10000C48091D0860081F006820F48020091F65
:102E20000860002005490C3108604FF0006002493D
:102E3000803908607047000088ED00E000380240EB
:102E4000FFFFF6FE103000240C480088B0F57A7FB2
:102E500005DA0A480088401C0849088002E0002082
:102E6000064908800548008810B901200449087007
:102E70006FF00100034909680861704704000020F1
:102E8000060000206400002010B51148006840F0E2
:102E900008000F4908600F480F49086040F2E73109
:102EA0000D48C160A7200C49486000210A48016113
:102EB0008160FEF7F1FF0848FFF79CF8002205212A
:102EC0003220FDF707FF3220FDF7F6FE10BD0000AF
:102ED00040380240000C00406400002000220268DC
:102EE0002C4B98420ED0B0F1804F0BD02A4B984219
:102EF00008D02A4B984205D0294B984202D0294B42
:102F0000984201D1012300E000231BB122F070029E
:102F10004B681A431F4B984220D0B0F1804F1DD010
:102F20001D4B98421AD01D4B984217D01C4B98420B
:102F300014D01C4B984211D01B4B98420ED01B4B07
:102F400098420BD01A4B984208D01A4B984205D0A1
:102F5000194B984202D0194B984201D1012300E04D
:102F600000231BB122F44072CB681A4302608B68C5
:102F7000C3620B688362074B984202D0094B9842A8
:102F800001D1012300E000230BB10B69036301238E
:102F90004361704700000140000400400008004009
:102FA000000C00400004014000400140004401408A
:102FB0000048014000180040001C00400020004074
:102FC00070B5002507480068C06800F020053DB1D5
:102FD000044800684068C4B2214603A000F0A0FB8A
:102FE00070BD0000280000202563000000B585B0FA
:102FF0002548006840F01000234908600846006832
:1030000040F01000086020481030006840F0804018
:103010001D491031086088150090022001900020A1
:103020000290022003900820049069461748FDF79B
:10303000A5F9802000900820049069461348FDF708
:103040009DF91348134908604FF4E13048600021AE
:1030500010488160C160016181610C214161FFF70D
:103060004DF80C480068C06840F020000949096824
:10307000C86000220E215220FDF72CFE5220FDF7E1
:103080001BFE05B000BD00003038024000100240B9
:1030900000780040280000202DE9F041044600257A
:1030A000CC49206888421BD0CB492068884217D081
:1030B000CA492068884213D0C949206888420FD085
:1030C000C849206888420BD0C7492068884207D089
:1030D000C6492068884203D0C5492068884200D18B
:1030E00004E040F21771C3A000F016FCCF496068FD
:1030F000884200D204E04FF4E361BEA000F00CFC73
:10310000A06818B1A068B0F5805F00D104E040F27B
:103110001971B8A000F000FCE06818B1E068B0F5E3
:10312000005F00D104E040F21A71B2A000F0F4FB9D
:10313000206938B12069B0F5806F03D02069B0F5FF
:10314000C06F00D104E040F21B71AAA000F0E4FBC4
:103150004FF6F3716069084010B9606900B104E08E
:1031600040F21C71A3A000F0D7FBA06958B1A06980
:10317000B0F5807F07D0A069B0F5007F03D0A069CB
:10318000B0F5407F00D104E040F21D7199A000F03D
:10319000C3FBA069A8B18F49206888420BD08E4933
:1031A0002068884207D08D492068884203D08E4924
:1031B0002068884200D104E040F222718DA000F026
:1031C000ABFB2068056925F44055E068054320689D
:1031D00005612068C56849F20C6085432169A068D3
:1031E000084361690843E169084305432068C560F5
:1031F0002068456925F44075A0690543206845614C
:10320000E069B0F5004F72D172492068884203D05E
:1032100075492068884234D1FEF73CF800EBC001C4
:1032200001EB001061684900B0FBF1F06421B0FBD4
:10323000F1F6FEF72FF800EBC00101EB001061681A
:103240004900B0FBF1F7FEF725F800EBC00101EBF8
:10325000001061684900B0FBF1F06421B0FBF1F0AF
:1032600000EBC00101EB0010A7EB8000322101EB65
:1032700000106421B0FBF1F066F31F102168886034
:10328000A6E0FDF7F1FF00EBC00101EB0010616863
:103290004900B0FBF1F06421B0FBF1F6FDF7E4FF6B
:1032A00000EBC00101EB001061684900B0FBF1F7D1
:1032B000FDF7DAFF00EBC00101EB00106168490087
:1032C000B0FBF1F06421B0FBF1F000EBC00101EBC9
:1032D0000010A7EB8000322101EB00106421B0FB4D
:1032E000F1F066F31F102168886071E0FFE739494B
:1032F0002068884203D03C492068884234D1FDF7D9
:10330000C9FF00EBC00101EB001061688900B0FB50
:10331000F1F06421B0FBF1F6FDF7BCFF00EBC0015A
:1033200001EB001061688900B0FBF1F7FDF7B2FF17
:1033300000EBC00101EB001061688900B0FBF1F007
:103340006421B0FBF1F000EBC00101EB0010A7EB32
:103350008000322101EB00106421B0FBF1F066F334
:103360001F102168886033E0FDF77EFF00EBC0018D
:1033700001EB001061688900B0FBF1F06421B0FB43
:10338000F1F6FDF771FF00EBC00101EB0010616881
:103390008900B0FBF1F7FDF767FF00EBC00101EB1F
:1033A000001061688900B0FBF1F06421B0FBF1F01E
:1033B00000EBC00101EB0010A7EB8000322101EB14
:1033C00000106421B0FBF1F066F31F1021688860E3
:1033D000BDE8F0810010014000440040004800407A
:1033E000004C0040005000400014014000780040B4
:1033F000007C00405352435C6C69625C53544D3313
:1034000032463478785F48414C5F44726976657221
:103410005C5372635C73746D3332663478785F68C2
:10342000616C5F756172742E63000000A137A000AB
:103430002DE9F04104460E4617461D464FF00008A0
:10344000FDF740FA80469FBB2BE0681C48B32DB1C6
:10345000FDF738FAA0EB0800A84222D92068C0681E
:1034600020F080002168C8602068C06820F020003B
:103470002168C8602068C06820F480702168C86036
:103480002068406920F0010021684861012084F82B
:10349000390000BF002084F8380000BF0320BDE8D9
:1034A000F081206800683040B04202D1012001E084
:1034B00003E000200028C8D035E02AE0681C40B3B3
:1034C0002DB1FDF7FFF9A0EB0800A84221D9206833
:1034D000C06820F080002168C8602068C06820F0C3
:1034E00020002168C8602068C06820F480702168CE
:1034F000C8602068406920F001002168486101200F
:1035000084F8390000BF002084F8380000BF032091
:10351000C5E7206800683040B04201D1012000E0DA
:1035200000200028CAD10020B9E7000010B5012210
:1035300008210348FDF790F902A000F0F1F810BD52
:10354000001002405644445F3356335F53454E5398
:103550004F52535F454E202D2D20D2D1CAB9C4DC25
:103560000D0A000010B5012291020348FDF774F91D
:1035700002A000F0D5F810BD001002405644445F90
:1035800035565F4849504F5745525F4F43202D2DC8
:1035900020D2D1CAB9C4DC0D0A00000010B5002247
:1035A0004FF480710348FDF757F903A000F0B8F815
:1035B00010BD0000000002405644445F35565F5085
:1035C00045524950485F454E202D2D20D2D1CAB9D1
:1035D000C4DC0D0A0000000010B50122D10303482D
:1035E000FDF73AF902A000F09BF810BD0010024070
:1035F0005644445F35565F4849504F5745525F4FD8
:1036000043202D2D20D2D1CAB9C4DC0D0A00000000
:1036100000B585B02748006820F001002549086002
:103620000846006840F0100008600846006840F056
:10363000100008600846006840F010000860881517
:103640000090012001900020029002200390694622
:103650001948FCF793FEFFF7A1FF08200090012016
:10366000019002900220039069461448FCF786FE00
:10367000FFF75CFF4FF48060009011200190002064
:1036800002900220039069460C48FCF777FEFFF792
:1036900069FF4FF40040009011200190002002903B
:1036A0000220039069460548FCF768FEFFF794FF87
:1036B00005B000BD3038024000000240001002405A
:1036C00000B585B01448006840F002001249086057
:1036D0000846006840F0020008600846006840F0B4
:1036E0000400086020200090002001900290022039
:1036F000039069460948FCF741FE80200090694626
:103700000648FCF73BFE0120009069460348FCF7A1
:1037100035FE05B000BD0000303802400004024014
:103720000FB4054B10B503A9044A029800F018F82D
:1037300010BC5DF814FB00003D3900082400002097
:1037400002E008C8121F08C1002AFAD1704770476A
:10375000002001E001C1121F002AFBD170470000C8
:103760002DE9FF4F8BB09A460F460546002606E02E
:1037700025280BD052460D9990476D1C761C287851
:103780000028F5D10FB03046BDE8F08F0024A046E8
:103790000122604900E0044315F8013F203B02FA92
:1037A00003F00842F7D128782E2817D115F8010F19
:1037B00044F004042A280ED06FF02F022878A0F1DC
:1037C000300109290AD808EB880102EB410100EB1E
:1037D00001086D1CF2E757F8048B6D1C28786928E6
:1037E0003ED006DC0028CDD063280BD0642804D15D
:1037F00036E0732810D075284BD052460D9990476B
:10380000761C85E017F8040B8DF8000000208DF879
:103810000100E946012003E057F8049B4FF0FF3018
:1038200061074FF0000401D40AE0641C44450DDA3E
:103830008442FADB19F804100029F6D106E0641C72
:103840008442FCDB19F804100029F8D1264404E076
:1038500019F8010B52460D999047641EF8D257E0B3
:1038600001CF4FF00A0B002802DA40422D2102E07E
:10387000210504D52B218DF82410012103E0E10757
:1038800005D02021F7E70DF1200908910CE0002177
:10389000F9E701CF4FF00A0BF9E75946FCF7A2FC14
:1038A00001F1300209F8012D0028F6D1ADEB090035
:1038B00000F1200B600701D44FF00108D84502DD6C
:1038C000A8EB0B0000E000208046002406E009A8D9
:1038D0005246005D0D999047641C761C08988442FE
:1038E000F5DB04E0302052460D999047761CB8F184
:1038F0000001A8F10108F5DC05E019F8010B5246BA
:103900000D999047761CBBF10001ABF1010BF4DC83
:103910006D1C34E70928010005E003A0FFF700FF54
:10392000FA20FCF71DFDF8E7C5E4D6C3BCECB2E90C
:10393000B4EDCEF3212121210000000013B50C4687
:103940004FF6FF73012269460248FEF772FC0098A9
:103950001CBD000028000020FDF76EF9FFF70AFAF1
:103960000020FEF739FEFFF741FBFFF7C9F8FFF72C
:103970008BFAFFF7E7F8FEF7B7FFFEF77BFEFEF7DF
:10398000D1FCFFF7C5F836E01B480088012832D18A
:10399000002019490880FEF749FE1848B0F90830A0
:1039A000B0F90620B0F9041015A0FFF7B9FE1348CE
:1039B000B0F91030B0F90E20B0F90C1019A0FFF7D3
:1039C000AFFE2148018821A0FFF7AAFE00201E4972
:1039D00008802148B0F90830B0F90620B0F9041089
:1039E0001EA0FFF79DFE2548018818A0FFF798FE4E
:1039F000002022490880C7E706000020F4000020CC
:103A00004D50553630303020414343454C20783DB1
:103A100025642C20793D25642C207A3D25640D0AEF
:103A2000000000004D505536303030204759524F7D
:103A30002020783D25642C20793D25642C207A3D7A
:103A400025640D0A0000000008000020636E743D2C
:103A500025640D0A0D0A0000180100204C534D3357
:103A6000303344204D414720783D25642C20793D5A
:103A700025642C207A3D25640D0A00000A000020F0
:103A80000010000000000102030401020304060705
:103A900008090000B43A00080000002028000000D7
:103AA00040370008DC3A00082800002038050000F4
:103AB0005037000800100240000000000000000025
:103AC00000000000007A030A00000000000000006F
:0C3AD000010203040607080900000000C2
:04000005080001AD41
:00000001FF
