:020000040800F2
:10000000800600204D020008550200085702000833
:10001000590200085B0200085D02000800000000B1
:100020000000000000000000000000005F02000867
:10003000610200080000000063020008850E00084D
:1000400067020008670200086702000867020008EC
:1000500067020008670200086702000867020008DC
:1000600067020008670200086702000867020008CC
:1000700067020008670200086702000867020008BC
:1000800067020008670200086702000867020008AC
:10009000670200086702000867020008670200089C
:1000A000670200086702000867020008670200088C
:1000B000670200086702000867020008670200087C
:1000C000670200086702000867020008670200086C
:1000D000670200086702000867020008670200085C
:1000E000670200086702000867020008670200084C
:1000F000670200086702000867020008670200083C
:10010000670200086702000867020008670200082B
:10011000670200086702000867020008670200081B
:10012000670200086702000867020008670200080B
:1001300067020008670200086702000867020008FB
:1001400067020008670200086702000867020008EB
:1001500067020008670200086702000867020008DB
:1001600067020008670200086702000867020008CB
:10017000670200086702000867020008000000002C
:1001800067020008670200086702000867020008AB
:10019000670200086702000867020008670200089B
:1001A00000000000000000006702000800F002F8F4
:1001B00000F03CF80AA090E8000C82448344AAF1C5
:1001C0000107DA4501D100F031F8AFF2090EBAE8C3
:1001D0000F0013F0010F18BFFB1A43F0010318477B
:1001E000BC0D0000DC0D0000103A24BF78C878C1B7
:1001F000FAD8520724BF30C830C144BF04680C602D
:10020000704700000023002400250026103A28BF74
:1002100078C1FBD8520728BF30C148BF0B60704778
:100220001FB500F0ADFE1FBD10B510BD00F031F8D8
:100230001146FFF7F5FF00F093FE00F04FF803B40E
:10024000FFF7F2FF03BC00F053F8000009488047B5
:1002500009480047FEE7FEE7FEE7FEE7FEE7FEE7A8
:10026000FEE7FEE7FEE7FEE704480549054A064BC0
:1002700070470000FD0E0008AD010008800000205E
:100280008006002080020020800200207047704716
:100290007047754600F028F8AE460500694653469B
:1002A00020F00700854618B020B5FFF7DDFFBDE858
:1002B00020404FF000064FF000074FF000084FF0CD
:1002C000000B21F00701AC46ACE8C009ACE8C0095E
:1002D000ACE8C009ACE8C0098D4670470446AFF3EE
:1002E00000802046FFF7ABFF004870471C0000204D
:1002F00001491820ABBEFEE726000200704731B569
:10030000002400F017F9044600BF00F013F9001BA9
:1003100000998842F9D338BDF0B502460B46002556
:10032000002400200021DCE0012606FA01F51E6809
:1003300006EA0504AC426ED15E68022E02D05E6809
:10034000122E13D1CF0802F1200656F827004E07CF
:10035000F70E0F26BE40B0434F07FF0E1E69BE408A
:100360003043CF0802F1200646F8270010684F00FE
:100370000326BE40B0431E7906F003064F00BE4080
:10038000304310605E68012E08D05E68022E05D0F2
:100390005E68112E02D05E68122E13D190684F0055
:1003A0000326BE40B0434F00DE68BE40304390603D
:1003B000506801268E40B0431E79C6F300168E4069
:1003C00030435060D0684F000326BE40B0434F001A
:1003D0009E68BE403043D0605E6806F08056B6F13D
:1003E000805F7DD1414E366846F480463F4F3E6087
:1003F0003F4E8F0856F827008E07370F0F26BE4056
:10040000B0433C4EB24201D100262EE03A4EB242F9
:1004100002D1012629E063E0384EB24201D1022622
:1004200023E0374EB24201D103261EE0354EB242E0
:1004300001D1042619E0344EB24201D1052614E060
:10044000324EB24201D106260FE0314EB24201D106
:1004500007260AE02F4EB24201D1082605E02E4EB3
:10046000B24201D1092600E00A268F073F0FBE40A5
:1004700030431F4E8F0846F82700284E3068A043AF
:100480005E6806F48036B6F5803F00D12043234EE7
:100490003060361D3068A0435E6806F40036B6F55D
:1004A000003F00D120431D4E361D3060361D3068A0
:1004B000A0435E6806F48016B6F5801F00D1204385
:1004C000164E08363060361D3068A0435E6806F46C
:1004D0000016B6F5001F00D12043104E0C363060D8
:1004E000491C1029FFF420AFF0BD00004438024041
:1004F00008380140000002400004024000080240A9
:10050000000C02400010024000140240001802409B
:10051000001C02400020024000240240003C014038
:1005200042694A40426170470AB1018300E0418359
:100530007047000001480068704700000400002078
:1005400002480068401C0149086070470400002010
:1005500010B50D48006840F400700B49086008466B
:10056000006840F4806008600846006840F48070CD
:100570000860032000F05CF80F2000F007F800F09E
:1005800017F8002010BD0000003C024070B5044682
:1005900000F08CF94FF47A71B0FBF1F5284600F0C9
:1005A00001FC00222146501E00F003F8002070BD1F
:1005B00070472DE9F05F80460D461646002700F093
:1005C00045FC074639462A46334601F00700C0F18C
:1005D000070ABAF1040F02D94FF0040A01E0C0F192
:1005E000070AD14600F1040ABAF1070F02D24FF010
:1005F000000A01E0A0F1030AD4464FF0010A0AFA0A
:1006000009FAAAF1010A0AEA020A0AFA0CFA4FF0F8
:10061000010B0BFA0CFBABF1010B0BEA030B4AEAE3
:100620000B042146404600F019FCBDE8F09F000095
:1006300000BF00F00702064B19684FF6FF03194090
:10064000044B0B4343EA0221014B196000BF704782
:100650000CED00E00000FA0570B504460D460026DA
:100660009048006800F00F00A8427ED28D490D70BE
:100670000846006800F00F00A84201D0012070BDBC
:10068000207800F00200022807D18748006820F097
:10069000F000A168084384490860207800F0010058
:1006A00000283BD06068012807D17F4808380068DF
:1006B000C0F34040A0B90120E1E76068022807D1FB
:1006C000794808380068C0F3406048B90120D6E78F
:1006D000754808380068C0F3400008B90120CEE72B
:1006E0007148006820F00300616808436E490860A3
:1006F000FFF720FF06466068012810D108E0FFF7E9
:1007000019FF801B41F28831884201D90320B6E7E6
:100710006548006800F00C000428F0D1A2E0606891
:10072000022810D108E0FFF705FF801B41F2883155
:10073000884201D90320A2E75B48006800F00C0062
:100740000828F0D18EE009E0FFF7F4FE801B41F2AB
:100750008831884202D9032091E706E052480068B8
:1007600000F00C000028EFD17CE0207800F00200BF
:10077000022807D14C48006820F0F000A168084327
:1007800049490860207800F00100002860D06068C6
:10079000012807D1444808380068C0F34040A0B998
:1007A00001206CE76068022807D13F4808380068DC
:1007B000C0F3406048B9012061E73B480838006851
:1007C000C0F3400008B9012059E73748006820F01D
:1007D00003006168084334490860FFF7ABFE064632
:1007E0006068012810D108E0FFF7A4FE801B41F2E9
:1007F0008831884201D9032041E72B48006800F086
:100800000C000428F0D123E06068022810D108E031
:10081000FFF790FE801B41F28831884201D9032006
:100820002DE72148006800F00C000828F0D10FE007
:1008300008E0FFF77FFE801B41F28831884201D932
:1008400003201CE71848006800F00C000028F0D1D5
:1008500014490D700846006800F00F00A84201D04E
:1008600001200CE7207800F00400042807D10E488E
:10087000006820F4E050E16808430B4908602078E4
:1008800000F00800082808D10748006820F46040FC
:10089000216940EAC100044908600F20FFF776FE95
:1008A0000020ECE6003C02400838024000B500F0B1
:1008B00019F80949096801F0F001F02292FAA2F250
:1008C000B2FA82F2D140054A515CC840044908603E
:1008D0000846006800BD0000083802408C0F000880
:1008E0000800002070B500210022002300202B4CBE
:1008F000246804F00C0424B1042C04D0082C48D142
:1009000003E0274847E0274845E0244C241F24689B
:1009100004F03F01214C241F246804F480044FF4A8
:10092000800595FAA5F5B5FA85F5EC4084B11D4C26
:10093000B4FBF1F5194C241F246847F6C076344007
:1009400096FAA6F6B6FA86F6F44005FB04F20FE036
:10095000134CB4FBF1F5114C241F246847F6C07604
:10096000344096FAA6F6B6FA86F6F44005FB04F291
:100970000A4C241F246804F440344FF4403595FA9F
:10098000A5F5B5FA85F5EC40641C6300B2FBF3F005
:1009900001E0034800BF00BF70BD000008380240FE
:1009A0000024F40040787D0170B5044600252078CD
:1009B00000F00100002867D0F648006800F00C0045
:1009C00004280DD0F348006800F00C00082813D16B
:1009D000F048001F006800F48000B0F5800F0BD1D4
:1009E000EC4808380068C0F3404000284CD06068EC
:1009F000012849D0012070BD0020E649891F0870F8
:100A0000FFF798FD054608E0FFF794FD401B41F213
:100A10008831884201D90320EDE7DE4808380068B4
:100A2000C0F340400028EFD12079DA49891F0870CF
:100A30006068012814D1FFF77DFD054608E0FFF747
:100A400079FD401B41F28831884201D90320D2E769
:100A5000D04808380068C0F340400028EFD013E0C9
:100A6000FFF768FD054608E0FFF764FD401B41F213
:100A70008831884201D90320BDE7C648083800689C
:100A8000C0F340400028EFD1207800F00200022897
:100A900069D1C048006800F00C0058B1BD4800683A
:100AA00000F00C00082821D1BA48001F006800F4AB
:100AB0008000D8B9B74808380068C0F3400020B1BA
:100AC000E068012801D0012095E7B24808380068A5
:100AD00020F0F800F82292FAA2F2B2FA82F221692A
:100AE00091400843AB49083908603CE0E06828B30E
:100AF0000120A9490860FFF71DFD054606E0FFF744
:100B000019FD401B642801D9032074E7A148083867
:100B10000068C0F340000028F1D09E480838006803
:100B200020F0F800F82292FAA2F2B2FA82F22169D9
:100B30009140084397490839086014E0002096491D
:100B40000860FFF7F7FC054606E0FFF7F3FC401BE3
:100B5000642801D903204EE78E4808380068C0F3A6
:100B600040000028F1D1207800F0080008282CD19E
:100B70006069A8B1012089490860FFF7DBFC0546E0
:100B800006E0FFF7D7FC401B642801D9032032E7B9
:100B900080486C300068C0F340000028F1D014E0B9
:100BA00000207E490860FFF7C5FC054606E0FFF718
:100BB000C1FC401B642801D903201CE775486C3038
:100BC0000068C0F340000028F1D1207800F0040054
:100BD000042866D16F483830006840F080506D4975
:100BE000383108606E48006840F480706C490860D5
:100BF000FFF7A0FC054606E0FFF79CFC401B6428BD
:100C000001D90320F7E66648006800F480700028E8
:100C1000F2D000205F4968310870FFF78BFC054671
:100C200008E0FFF787FC401B41F28831884201D978
:100C30000320E0E6574868300068C0F34000002811
:100C4000EFD1207A534968310870A068012814D187
:100C5000FFF770FC054608E0FFF76CFC401B41F213
:100C60008831884201D90320C5E64A4868300068C7
:100C7000C0F340000028EFD013E0FFF75BFC05460F
:100C800008E0FFF757FC401B41F28831884201D948
:100C90000320B0E63F4868300068C0F340000028F9
:100CA000EFD1A069F0B33B48006800F00C000828C1
:100CB0006BD0A069022852D1002037490866FFF79F
:100CC00039FC054606E0FFF735FC401B642801D9D6
:100CD000032090E62F4808380068C0F340600028E1
:100CE000F1D1206A40F0005047F6C07292FAA2F2A9
:100CF000B2FA82F2616A914008430122A16AC2EB12
:100D000051014FF4403292FAA2F2B2FA82F29140CB
:100D10000843E16908434FF0706292FAA2F2B2FA16
:100D200082F200E033E0E16A914008431949091F6B
:100D30000860012018490866FFF7FCFB054606E03D
:100D4000FFF7F8FB401B642801D9032053E6114844
:100D500008380068C0F340600028F1D017E0002098
:100D60000D490866FFF7E6FB054606E0FFF7E2FBE4
:100D7000401B642801D903203DE606480838006876
:100D8000C0F340600028F1D101E0012033E60020EB
:100D900031E600000838024000004742800E47421A
:100DA0000070004070B504462546681EB0F1807F93
:100DB00001D301200FE0681E4FF0E02148610F21B0
:100DC0004FF0FF3000F04AF800204FF0E02188613A
:100DD00007200861002070BD10B586B00446104899
:100DE000006840F010000E4908600E4830F814000A
:100DF0000190012002900390022004900A4951F8CA
:100E0000240001A9FFF788FA064A32F81410064AAE
:100E100052F824000022FFF787FB06B010BD000047
:100E2000303802408A0F00080000002010B5044648
:100E3000044A32F81410044A52F82400FFF770FBF9
:100E400010BD00008A0F0008000000200248006862
:100E5000C0F30220704700000CED00E010B5002840
:100E600007DA0A07140E054A00F00F031B1FD454BB
:100E700003E00A07130E024A135410BD18ED00E0F8
:100E800000E400E010B5FFF75BFB10BD00B591B0CA
:100E90001848006840F080501649086016480068FD
:100EA00040F440401449086001200590069002205B
:100EB0000B9041050C9118210D914FF4A8710E91E2
:100EC00002210F910721109105A8FFF76DFD0D205C
:100ED000009002200190002002904FF4A050039057
:100EE0004FF48050049005216846FFF7B5FB11B020
:100EF00000BD000040380240007000401448006807
:100F000040F47000124908601248006840F0010087
:100F10001049086000200F49083108600D4800683A
:100F20000D4908400B4908600C48091D0860081F5E
:100F3000006820F48020091F0860002005490C315A
:100F400008604FF000600249803908607047000077
:100F500088ED00E000380240FFFFF6FE103000246C
:100F6000FFF7F6FAFFF792FF0020FFF735FF06E0E4
:100F70000020FFF75BFF4FF4FA70FFF7C0F9F7E7C7
:100F80004FF04070E1EE100A7047001000000000C2
:100F9000010203040102030406070809BC0F00084C
:100FA000000000201C000000E8010008D80F000825
:100FB0001C0000206406000004020008001002402B
:100FC000000000000024F400000000000000000009
:080FD0000102030406070809F1
:04000005080001AD41
:00000001FF
